{
  "_format": "hh-sol-artifact-1",
  "contractName": "PongTournament",
  "sourceName": "contracts/PongTournament.sol",
  "abi": [
    {
      "inputs": [],
      "stateMutability": "nonpayable",
      "type": "constructor"
    },
    {
      "anonymous": false,
      "inputs": [
        {
          "indexed": true,
          "internalType": "address",
          "name": "oldAdmin",
          "type": "address"
        },
        {
          "indexed": true,
          "internalType": "address",
          "name": "newAdmin",
          "type": "address"
        }
      ],
      "name": "AdminChanged",
      "type": "event"
    },
    {
      "anonymous": false,
      "inputs": [
        {
          "indexed": true,
          "internalType": "uint256",
          "name": "tournamentId",
          "type": "uint256"
        },
        {
          "indexed": false,
          "internalType": "string",
          "name": "player1",
          "type": "string"
        },
        {
          "indexed": false,
          "internalType": "string",
          "name": "player2",
          "type": "string"
        },
        {
          "indexed": false,
          "internalType": "uint256",
          "name": "score1",
          "type": "uint256"
        },
        {
          "indexed": false,
          "internalType": "uint256",
          "name": "score2",
          "type": "uint256"
        }
      ],
      "name": "MatchAdded",
      "type": "event"
    },
    {
      "anonymous": false,
      "inputs": [
        {
          "indexed": true,
          "internalType": "uint256",
          "name": "tournamentId",
          "type": "uint256"
        },
        {
          "indexed": false,
          "internalType": "string",
          "name": "name",
          "type": "string"
        }
      ],
      "name": "TournamentCreated",
      "type": "event"
    },
    {
      "inputs": [
        {
          "internalType": "uint256",
          "name": "_tournamentId",
          "type": "uint256"
        },
        {
          "internalType": "string",
          "name": "_player1",
          "type": "string"
        },
        {
          "internalType": "string",
          "name": "_player2",
          "type": "string"
        },
        {
          "internalType": "uint256",
          "name": "_score1",
          "type": "uint256"
        },
        {
          "internalType": "uint256",
          "name": "_score2",
          "type": "uint256"
        }
      ],
      "name": "addMatch",
      "outputs": [],
      "stateMutability": "nonpayable",
      "type": "function"
    },
    {
      "inputs": [],
      "name": "admin",
      "outputs": [
        {
          "internalType": "address",
          "name": "",
          "type": "address"
        }
      ],
      "stateMutability": "view",
      "type": "function"
    },
    {
      "inputs": [
        {
          "internalType": "string",
          "name": "_name",
          "type": "string"
        }
      ],
      "name": "createTournament",
      "outputs": [],
      "stateMutability": "nonpayable",
      "type": "function"
    },
    {
      "inputs": [
        {
          "internalType": "uint256",
          "name": "_tournamentId",
          "type": "uint256"
        },
        {
          "internalType": "string",
          "name": "_playerName",
          "type": "string"
        }
      ],
      "name": "getPlayerMatches",
      "outputs": [
        {
          "components": [
            {
              "internalType": "uint256",
              "name": "tournamentId",
              "type": "uint256"
            },
            {
              "internalType": "string",
              "name": "player1",
              "type": "string"
            },
            {
              "internalType": "string",
              "name": "player2",
              "type": "string"
            },
            {
              "internalType": "uint256",
              "name": "score1",
              "type": "uint256"
            },
            {
              "internalType": "uint256",
              "name": "score2",
              "type": "uint256"
            }
          ],
          "internalType": "struct PongTournament.Match[]",
          "name": "",
          "type": "tuple[]"
        }
      ],
      "stateMutability": "view",
      "type": "function"
    },
    {
      "inputs": [
        {
          "internalType": "uint256",
          "name": "_tournamentId",
          "type": "uint256"
        }
      ],
      "name": "getTournament",
      "outputs": [
        {
          "components": [
            {
              "internalType": "uint256",
              "name": "id",
              "type": "uint256"
            },
            {
              "internalType": "string",
              "name": "name",
              "type": "string"
            },
            {
              "internalType": "uint256",
              "name": "matchCount",
              "type": "uint256"
            }
          ],
          "internalType": "struct PongTournament.Tournament",
          "name": "",
          "type": "tuple"
        }
      ],
      "stateMutability": "view",
      "type": "function"
    },
    {
      "inputs": [],
      "name": "getTournamentCount",
      "outputs": [
        {
          "internalType": "uint256",
          "name": "",
          "type": "uint256"
        }
      ],
      "stateMutability": "view",
      "type": "function"
    },
    {
      "inputs": [
        {
          "internalType": "uint256",
          "name": "_tournamentId",
          "type": "uint256"
        }
      ],
      "name": "getTournamentMatches",
      "outputs": [
        {
          "components": [
            {
              "internalType": "uint256",
              "name": "tournamentId",
              "type": "uint256"
            },
            {
              "internalType": "string",
              "name": "player1",
              "type": "string"
            },
            {
              "internalType": "string",
              "name": "player2",
              "type": "string"
            },
            {
              "internalType": "uint256",
              "name": "score1",
              "type": "uint256"
            },
            {
              "internalType": "uint256",
              "name": "score2",
              "type": "uint256"
            }
          ],
          "internalType": "struct PongTournament.Match[]",
          "name": "",
          "type": "tuple[]"
        }
      ],
      "stateMutability": "view",
      "type": "function"
    },
    {
      "inputs": [
        {
          "internalType": "uint256",
          "name": "",
          "type": "uint256"
        },
        {
          "internalType": "uint256",
          "name": "",
          "type": "uint256"
        }
      ],
      "name": "tournamentMatches",
      "outputs": [
        {
          "internalType": "uint256",
          "name": "tournamentId",
          "type": "uint256"
        },
        {
          "internalType": "string",
          "name": "player1",
          "type": "string"
        },
        {
          "internalType": "string",
          "name": "player2",
          "type": "string"
        },
        {
          "internalType": "uint256",
          "name": "score1",
          "type": "uint256"
        },
        {
          "internalType": "uint256",
          "name": "score2",
          "type": "uint256"
        }
      ],
      "stateMutability": "view",
      "type": "function"
    },
    {
      "inputs": [
        {
          "internalType": "uint256",
          "name": "",
          "type": "uint256"
        }
      ],
      "name": "tournaments",
      "outputs": [
        {
          "internalType": "uint256",
          "name": "id",
          "type": "uint256"
        },
        {
          "internalType": "string",
          "name": "name",
          "type": "string"
        },
        {
          "internalType": "uint256",
          "name": "matchCount",
          "type": "uint256"
        }
      ],
      "stateMutability": "view",
      "type": "function"
    }
  ],
  "bytecode": "0x608060405234801561001057600080fd5b5033600360006101000a81548173ffffffffffffffffffffffffffffffffffffffff021916908373ffffffffffffffffffffffffffffffffffffffff160217905550611af9806100616000396000f3fe608060405234801561001057600080fd5b50600436106100935760003560e01c80637503e1b7116100665780637503e1b7146101365780637b58450f14610168578063cae077af14610198578063d8c57e85146101b4578063f851a440146101e457610093565b8063078c51f0146100985780631a5bd7fc146100b657806336345800146100e65780633fbf920114610102575b600080fd5b6100a0610202565b6040516100ad9190610ec0565b60405180910390f35b6100d060048036038101906100cb9190610f1b565b61020b565b6040516100dd9190611037565b60405180910390f35b61010060048036038101906100fb919061118e565b610323565b005b61011c600480360381019061011791906111d7565b610466565b60405161012d959493929190611261565b60405180910390f35b610150600480360381019061014b9190610f1b565b6105c9565b60405161015f939291906112c2565b60405180910390f35b610182600480360381019061017d9190611300565b61067b565b60405161018f919061149b565b60405180910390f35b6101b260048036038101906101ad91906114bd565b610a43565b005b6101ce60048036038101906101c99190610f1b565b610c38565b6040516101db919061149b565b60405180910390f35b6101ec610e31565b6040516101f991906115b1565b60405180910390f35b60008054905090565b610213610e57565b600054821115610258576040517f08c379a000000000000000000000000000000000000000000000000000000000815260040161024f90611618565b60405180910390fd5b600160008381526020019081526020016000206040518060600160405290816000820154815260200160018201805461029090611667565b80601f01602080910402602001604051908101604052809291908181526020018280546102bc90611667565b80156103095780601f106102de57610100808354040283529160200191610309565b820191906000526020600020905b8154815290600101906020018083116102ec57829003601f168201915b505050505081526020016002820154815250509050919050565b600360009054906101000a900473ffffffffffffffffffffffffffffffffffffffff1673ffffffffffffffffffffffffffffffffffffffff163373ffffffffffffffffffffffffffffffffffffffff16146103b3576040517f08c379a00000000000000000000000000000000000000000000000000000000081526004016103aa9061170a565b60405180910390fd5b6000808154809291906103c590611759565b9190505550604051806060016040528060005481526020018281526020016000815250600160008054815260200190815260200160002060008201518160000155602082015181600101908161041b919061194d565b50604082015181600201559050506000547f77fc24e726ab1f7651f0523bdf97dd655fd89a1e56e42c18fea2906ac4a9d0428260405161045b9190611a1f565b60405180910390a250565b6002602052816000526040600020818154811061048257600080fd5b9060005260206000209060050201600091509150508060000154908060010180546104ac90611667565b80601f01602080910402602001604051908101604052809291908181526020018280546104d890611667565b80156105255780601f106104fa57610100808354040283529160200191610525565b820191906000526020600020905b81548152906001019060200180831161050857829003601f168201915b50505050509080600201805461053a90611667565b80601f016020809104026020016040519081016040528092919081815260200182805461056690611667565b80156105b35780601f10610588576101008083540402835291602001916105b3565b820191906000526020600020905b81548152906001019060200180831161059657829003601f168201915b5050505050908060030154908060040154905085565b60016020528060005260406000206000915090508060000154908060010180546105f290611667565b80601f016020809104026020016040519081016040528092919081815260200182805461061e90611667565b801561066b5780601f106106405761010080835404028352916020019161066b565b820191906000526020600020905b81548152906001019060200180831161064e57829003601f168201915b5050505050908060020154905083565b60606000548311156106c2576040517f08c379a00000000000000000000000000000000000000000000000000000000081526004016106b990611618565b60405180910390fd5b600060026000858152602001908152602001600020805480602002602001604051908101604052809291908181526020016000905b8282101561086b57838290600052602060002090600502016040518060a00160405290816000820154815260200160018201805461073490611667565b80601f016020809104026020016040519081016040528092919081815260200182805461076090611667565b80156107ad5780601f10610782576101008083540402835291602001916107ad565b820191906000526020600020905b81548152906001019060200180831161079057829003601f168201915b505050505081526020016002820180546107c690611667565b80601f01602080910402602001604051908101604052809291908181526020018280546107f290611667565b801561083f5780601f106108145761010080835404028352916020019161083f565b820191906000526020600020905b81548152906001019060200180831161082257829003601f168201915b5050505050815260200160038201548152602001600482015481525050815260200190600101906106f7565b5050505090506000805b825181101561090a57848051906020012083828151811061089957610898611a41565b5b6020026020010151602001518051906020012014806108e3575084805190602001208382815181106108ce576108cd611a41565b5b60200260200101516040015180519060200120145b156108f75781806108f390611759565b9250505b808061090290611759565b915050610875565b5060008167ffffffffffffffff81111561092757610926611063565b5b60405190808252806020026020018201604052801561096057816020015b61094d610e78565b8152602001906001900390816109455790505b5090506000805b8451811015610a3557868051906020012085828151811061098b5761098a611a41565b5b6020026020010151602001518051906020012014806109d5575086805190602001208582815181106109c0576109bf611a41565b5b60200260200101516040015180519060200120145b15610a22578481815181106109ed576109ec611a41565b5b6020026020010151838381518110610a0857610a07611a41565b5b60200260200101819052508180610a1e90611759565b9250505b8080610a2d90611759565b915050610967565b508194505050505092915050565b600360009054906101000a900473ffffffffffffffffffffffffffffffffffffffff1673ffffffffffffffffffffffffffffffffffffffff163373ffffffffffffffffffffffffffffffffffffffff1614610ad3576040517f08c379a0000000000000000000000000000000000000000000000000000000008152600401610aca9061170a565b60405180910390fd5b600054851115610b18576040517f08c379a0000000000000000000000000000000000000000000000000000000008152600401610b0f90611618565b60405180910390fd5b600260008681526020019081526020016000206040518060a00160405280878152602001868152602001858152602001848152602001838152509080600181540180825580915050600190039060005260206000209060050201600090919091909150600082015181600001556020820151816001019081610b9a919061194d565b506040820151816002019081610bb0919061194d565b5060608201518160030155608082015181600401555050600160008681526020019081526020016000206002016000815480929190610bee90611759565b9190505550847f69e342fc22ceb8fbc792b8253ef61e6a9525e29f8e49eb9ba2ced64b05bc4f5285858585604051610c299493929190611a70565b60405180910390a25050505050565b6060600054821115610c7f576040517f08c379a0000000000000000000000000000000000000000000000000000000008152600401610c7690611618565b60405180910390fd5b60026000838152602001908152602001600020805480602002602001604051908101604052809291908181526020016000905b82821015610e2657838290600052602060002090600502016040518060a001604052908160008201548152602001600182018054610cef90611667565b80601f0160208091040260200160405190810160405280929190818152602001828054610d1b90611667565b8015610d685780601f10610d3d57610100808354040283529160200191610d68565b820191906000526020600020905b815481529060010190602001808311610d4b57829003601f168201915b50505050508152602001600282018054610d8190611667565b80601f0160208091040260200160405190810160405280929190818152602001828054610dad90611667565b8015610dfa5780601f10610dcf57610100808354040283529160200191610dfa565b820191906000526020600020905b815481529060010190602001808311610ddd57829003601f168201915b505050505081526020016003820154815260200160048201548152505081526020019060010190610cb2565b505050509050919050565b600360009054906101000a900473ffffffffffffffffffffffffffffffffffffffff1681565b60405180606001604052806000815260200160608152602001600081525090565b6040518060a0016040528060008152602001606081526020016060815260200160008152602001600081525090565b6000819050919050565b610eba81610ea7565b82525050565b6000602082019050610ed56000830184610eb1565b92915050565b6000604051905090565b600080fd5b600080fd5b610ef881610ea7565b8114610f0357600080fd5b50565b600081359050610f1581610eef565b92915050565b600060208284031215610f3157610f30610ee5565b5b6000610f3f84828501610f06565b91505092915050565b610f5181610ea7565b82525050565b600081519050919050565b600082825260208201905092915050565b60005b83811015610f91578082015181840152602081019050610f76565b60008484015250505050565b6000601f19601f8301169050919050565b6000610fb982610f57565b610fc38185610f62565b9350610fd3818560208601610f73565b610fdc81610f9d565b840191505092915050565b6000606083016000830151610fff6000860182610f48565b50602083015184820360208601526110178282610fae565b915050604083015161102c6040860182610f48565b508091505092915050565b600060208201905081810360008301526110518184610fe7565b905092915050565b600080fd5b600080fd5b7f4e487b7100000000000000000000000000000000000000000000000000000000600052604160045260246000fd5b61109b82610f9d565b810181811067ffffffffffffffff821117156110ba576110b9611063565b5b80604052505050565b60006110cd610edb565b90506110d98282611092565b919050565b600067ffffffffffffffff8211156110f9576110f8611063565b5b61110282610f9d565b9050602081019050919050565b82818337600083830152505050565b600061113161112c846110de565b6110c3565b90508281526020810184848401111561114d5761114c61105e565b5b61115884828561110f565b509392505050565b600082601f83011261117557611174611059565b5b813561118584826020860161111e565b91505092915050565b6000602082840312156111a4576111a3610ee5565b5b600082013567ffffffffffffffff8111156111c2576111c1610eea565b5b6111ce84828501611160565b91505092915050565b600080604083850312156111ee576111ed610ee5565b5b60006111fc85828601610f06565b925050602061120d85828601610f06565b9150509250929050565b600082825260208201905092915050565b600061123382610f57565b61123d8185611217565b935061124d818560208601610f73565b61125681610f9d565b840191505092915050565b600060a0820190506112766000830188610eb1565b81810360208301526112888187611228565b9050818103604083015261129c8186611228565b90506112ab6060830185610eb1565b6112b86080830184610eb1565b9695505050505050565b60006060820190506112d76000830186610eb1565b81810360208301526112e98185611228565b90506112f86040830184610eb1565b949350505050565b6000806040838503121561131757611316610ee5565b5b600061132585828601610f06565b925050602083013567ffffffffffffffff81111561134657611345610eea565b5b61135285828601611160565b9150509250929050565b600081519050919050565b600082825260208201905092915050565b6000819050602082019050919050565b600060a0830160008301516113a06000860182610f48565b50602083015184820360208601526113b88282610fae565b915050604083015184820360408601526113d28282610fae565b91505060608301516113e76060860182610f48565b5060808301516113fa6080860182610f48565b508091505092915050565b60006114118383611388565b905092915050565b6000602082019050919050565b60006114318261135c565b61143b8185611367565b93508360208202850161144d85611378565b8060005b85811015611489578484038952815161146a8582611405565b945061147583611419565b925060208a01995050600181019050611451565b50829750879550505050505092915050565b600060208201905081810360008301526114b58184611426565b905092915050565b600080600080600060a086880312156114d9576114d8610ee5565b5b60006114e788828901610f06565b955050602086013567ffffffffffffffff81111561150857611507610eea565b5b61151488828901611160565b945050604086013567ffffffffffffffff81111561153557611534610eea565b5b61154188828901611160565b935050606061155288828901610f06565b925050608061156388828901610f06565b9150509295509295909350565b600073ffffffffffffffffffffffffffffffffffffffff82169050919050565b600061159b82611570565b9050919050565b6115ab81611590565b82525050565b60006020820190506115c660008301846115a2565b92915050565b7f546f75726e616d656e7420646f6573206e6f7420657869737400000000000000600082015250565b6000611602601983611217565b915061160d826115cc565b602082019050919050565b60006020820190508181036000830152611631816115f5565b9050919050565b7f4e487b7100000000000000000000000000000000000000000000000000000000600052602260045260246000fd5b6000600282049050600182168061167f57607f821691505b60208210810361169257611691611638565b5b50919050565b7f4f6e6c792061646d696e2063616e2063616c6c20746869732066756e6374696f60008201527f6e00000000000000000000000000000000000000000000000000000000000000602082015250565b60006116f4602183611217565b91506116ff82611698565b604082019050919050565b60006020820190508181036000830152611723816116e7565b9050919050565b7f4e487b7100000000000000000000000000000000000000000000000000000000600052601160045260246000fd5b600061176482610ea7565b91507fffffffffffffffffffffffffffffffffffffffffffffffffffffffffffffffff82036117965761179561172a565b5b600182019050919050565b60008190508160005260206000209050919050565b60006020601f8301049050919050565b600082821b905092915050565b6000600883026118037fffffffffffffffffffffffffffffffffffffffffffffffffffffffffffffffff826117c6565b61180d86836117c6565b95508019841693508086168417925050509392505050565b6000819050919050565b600061184a61184561184084610ea7565b611825565b610ea7565b9050919050565b6000819050919050565b6118648361182f565b61187861187082611851565b8484546117d3565b825550505050565b600090565b61188d611880565b61189881848461185b565b505050565b5b818110156118bc576118b1600082611885565b60018101905061189e565b5050565b601f821115611901576118d2816117a1565b6118db846117b6565b810160208510156118ea578190505b6118fe6118f6856117b6565b83018261189d565b50505b505050565b600082821c905092915050565b600061192460001984600802611906565b1980831691505092915050565b600061193d8383611913565b9150826002028217905092915050565b61195682610f57565b67ffffffffffffffff81111561196f5761196e611063565b5b6119798254611667565b6119848282856118c0565b600060209050601f8311600181146119b757600084156119a5578287015190505b6119af8582611931565b865550611a17565b601f1984166119c5866117a1565b60005b828110156119ed578489015182556001820191506020850194506020810190506119c8565b86831015611a0a5784890151611a06601f891682611913565b8355505b6001600288020188555050505b505050505050565b60006020820190508181036000830152611a398184611228565b905092915050565b7f4e487b7100000000000000000000000000000000000000000000000000000000600052603260045260246000fd5b60006080820190508181036000830152611a8a8187611228565b90508181036020830152611a9e8186611228565b9050611aad6040830185610eb1565b611aba6060830184610eb1565b9594505050505056fea264697066735822122033888f2a761b5d32444060269d0d1357cc17ddf89c891df62667ef7e07f5072f64736f6c63430008140033",
  "linkReferences": {},
  "deployedLinkReferences": {}
}