{
  "_format": "hh-sol-artifact-1",
  "contractName": "PongTournament",
  "sourceName": "contracts/PongTournament.sol",
  "abi": [
    {
      "inputs": [],
      "stateMutability": "nonpayable",
      "type": "constructor"
    },
    {
      "anonymous": false,
      "inputs": [
        {
          "indexed": true,
          "internalType": "address",
          "name": "oldAdmin",
          "type": "address"
        },
        {
          "indexed": true,
          "internalType": "address",
          "name": "newAdmin",
          "type": "address"
        }
      ],
      "name": "AdminChanged",
      "type": "event"
    },
    {
      "anonymous": false,
      "inputs": [
        {
          "indexed": true,
          "internalType": "uint256",
          "name": "tournamentId",
          "type": "uint256"
        },
        {
          "indexed": false,
          "internalType": "string",
          "name": "player1",
          "type": "string"
        },
        {
          "indexed": false,
          "internalType": "string",
          "name": "player2",
          "type": "string"
        },
        {
          "indexed": false,
          "internalType": "uint256",
          "name": "score1",
          "type": "uint256"
        },
        {
          "indexed": false,
          "internalType": "uint256",
          "name": "score2",
          "type": "uint256"
        }
      ],
      "name": "MatchAdded",
      "type": "event"
    },
    {
      "anonymous": false,
      "inputs": [
        {
          "indexed": true,
          "internalType": "uint256",
          "name": "tournamentId",
          "type": "uint256"
        },
        {
          "indexed": false,
          "internalType": "string",
          "name": "name",
          "type": "string"
        }
      ],
      "name": "TournamentCreated",
      "type": "event"
    },
    {
      "inputs": [
        {
          "internalType": "uint256",
          "name": "_tournamentId",
          "type": "uint256"
        },
        {
          "internalType": "string",
          "name": "_player1",
          "type": "string"
        },
        {
          "internalType": "string",
          "name": "_player2",
          "type": "string"
        },
        {
          "internalType": "uint256",
          "name": "_score1",
          "type": "uint256"
        },
        {
          "internalType": "uint256",
          "name": "_score2",
          "type": "uint256"
        }
      ],
      "name": "addMatch",
      "outputs": [],
      "stateMutability": "nonpayable",
      "type": "function"
    },
    {
      "inputs": [],
      "name": "admin",
      "outputs": [
        {
          "internalType": "address",
          "name": "",
          "type": "address"
        }
      ],
      "stateMutability": "view",
      "type": "function"
    },
    {
      "inputs": [
        {
          "internalType": "string",
          "name": "_name",
          "type": "string"
        }
      ],
      "name": "createTournament",
      "outputs": [],
      "stateMutability": "nonpayable",
      "type": "function"
    },
    {
      "inputs": [
        {
          "internalType": "uint256",
          "name": "_tournamentId",
          "type": "uint256"
        },
        {
          "internalType": "string",
          "name": "_playerName",
          "type": "string"
        }
      ],
      "name": "getPlayerMatches",
      "outputs": [
        {
          "components": [
            {
              "internalType": "uint256",
              "name": "tournamentId",
              "type": "uint256"
            },
            {
              "internalType": "string",
              "name": "player1",
              "type": "string"
            },
            {
              "internalType": "string",
              "name": "player2",
              "type": "string"
            },
            {
              "internalType": "uint256",
              "name": "score1",
              "type": "uint256"
            },
            {
              "internalType": "uint256",
              "name": "score2",
              "type": "uint256"
            }
          ],
          "internalType": "struct PongTournament.Match[]",
          "name": "",
          "type": "tuple[]"
        }
      ],
      "stateMutability": "view",
      "type": "function"
    },
    {
      "inputs": [
        {
          "internalType": "uint256",
          "name": "_tournamentId",
          "type": "uint256"
        }
      ],
      "name": "getTournament",
      "outputs": [
        {
          "components": [
            {
              "internalType": "uint256",
              "name": "id",
              "type": "uint256"
            },
            {
              "internalType": "string",
              "name": "name",
              "type": "string"
            },
            {
              "internalType": "uint256",
              "name": "matchCount",
              "type": "uint256"
            }
          ],
          "internalType": "struct PongTournament.Tournament",
          "name": "",
          "type": "tuple"
        }
      ],
      "stateMutability": "view",
      "type": "function"
    },
    {
      "inputs": [],
      "name": "getTournamentCount",
      "outputs": [
        {
          "internalType": "uint256",
          "name": "",
          "type": "uint256"
        }
      ],
      "stateMutability": "view",
      "type": "function"
    },
    {
      "inputs": [
        {
          "internalType": "uint256",
          "name": "_tournamentId",
          "type": "uint256"
        }
      ],
      "name": "getTournamentMatches",
      "outputs": [
        {
          "components": [
            {
              "internalType": "uint256",
              "name": "tournamentId",
              "type": "uint256"
            },
            {
              "internalType": "string",
              "name": "player1",
              "type": "string"
            },
            {
              "internalType": "string",
              "name": "player2",
              "type": "string"
            },
            {
              "internalType": "uint256",
              "name": "score1",
              "type": "uint256"
            },
            {
              "internalType": "uint256",
              "name": "score2",
              "type": "uint256"
            }
          ],
          "internalType": "struct PongTournament.Match[]",
          "name": "",
          "type": "tuple[]"
        }
      ],
      "stateMutability": "view",
      "type": "function"
    },
    {
      "inputs": [
        {
          "internalType": "uint256",
          "name": "",
          "type": "uint256"
        },
        {
          "internalType": "uint256",
          "name": "",
          "type": "uint256"
        }
      ],
      "name": "tournamentMatches",
      "outputs": [
        {
          "internalType": "uint256",
          "name": "tournamentId",
          "type": "uint256"
        },
        {
          "internalType": "string",
          "name": "player1",
          "type": "string"
        },
        {
          "internalType": "string",
          "name": "player2",
          "type": "string"
        },
        {
          "internalType": "uint256",
          "name": "score1",
          "type": "uint256"
        },
        {
          "internalType": "uint256",
          "name": "score2",
          "type": "uint256"
        }
      ],
      "stateMutability": "view",
      "type": "function"
    },
    {
      "inputs": [
        {
          "internalType": "uint256",
          "name": "",
          "type": "uint256"
        }
      ],
      "name": "tournaments",
      "outputs": [
        {
          "internalType": "uint256",
          "name": "id",
          "type": "uint256"
        },
        {
          "internalType": "string",
          "name": "name",
          "type": "string"
        },
        {
          "internalType": "uint256",
          "name": "matchCount",
          "type": "uint256"
        }
      ],
      "stateMutability": "view",
      "type": "function"
    }
  ],
  "bytecode": "0x608060405234801561001057600080fd5b5033600360006101000a81548173ffffffffffffffffffffffffffffffffffffffff021916908373ffffffffffffffffffffffffffffffffffffffff160217905550611a69806100616000396000f3fe608060405234801561001057600080fd5b50600436106100935760003560e01c80637503e1b7116100665780637503e1b7146101365780637b58450f14610168578063cae077af14610198578063d8c57e85146101b4578063f851a440146101e457610093565b8063078c51f0146100985780631a5bd7fc146100b657806336345800146100e65780633fbf920114610102575b600080fd5b6100a0610202565b6040516100ad9190610e30565b60405180910390f35b6100d060048036038101906100cb9190610e8b565b61020b565b6040516100dd9190610fa7565b60405180910390f35b61010060048036038101906100fb91906110fe565b610323565b005b61011c60048036038101906101179190611147565b6103d6565b60405161012d9594939291906111d1565b60405180910390f35b610150600480360381019061014b9190610e8b565b610539565b60405161015f93929190611232565b60405180910390f35b610182600480360381019061017d9190611270565b6105eb565b60405161018f919061140b565b60405180910390f35b6101b260048036038101906101ad919061142d565b6109b3565b005b6101ce60048036038101906101c99190610e8b565b610ba8565b6040516101db919061140b565b60405180910390f35b6101ec610da1565b6040516101f99190611521565b60405180910390f35b60008054905090565b610213610dc7565b600054821115610258576040517f08c379a000000000000000000000000000000000000000000000000000000000815260040161024f90611588565b60405180910390fd5b6001600083815260200190815260200160002060405180606001604052908160008201548152602001600182018054610290906115d7565b80601f01602080910402602001604051908101604052809291908181526020018280546102bc906115d7565b80156103095780601f106102de57610100808354040283529160200191610309565b820191906000526020600020905b8154815290600101906020018083116102ec57829003601f168201915b505050505081526020016002820154815250509050919050565b60008081548092919061033590611637565b9190505550604051806060016040528060005481526020018281526020016000815250600160008054815260200190815260200160002060008201518160000155602082015181600101908161038b919061182b565b50604082015181600201559050506000547f77fc24e726ab1f7651f0523bdf97dd655fd89a1e56e42c18fea2906ac4a9d042826040516103cb91906118fd565b60405180910390a250565b600260205281600052604060002081815481106103f257600080fd5b90600052602060002090600502016000915091505080600001549080600101805461041c906115d7565b80601f0160208091040260200160405190810160405280929190818152602001828054610448906115d7565b80156104955780601f1061046a57610100808354040283529160200191610495565b820191906000526020600020905b81548152906001019060200180831161047857829003601f168201915b5050505050908060020180546104aa906115d7565b80601f01602080910402602001604051908101604052809291908181526020018280546104d6906115d7565b80156105235780601f106104f857610100808354040283529160200191610523565b820191906000526020600020905b81548152906001019060200180831161050657829003601f168201915b5050505050908060030154908060040154905085565b6001602052806000526040600020600091509050806000015490806001018054610562906115d7565b80601f016020809104026020016040519081016040528092919081815260200182805461058e906115d7565b80156105db5780601f106105b0576101008083540402835291602001916105db565b820191906000526020600020905b8154815290600101906020018083116105be57829003601f168201915b5050505050908060020154905083565b6060600054831115610632576040517f08c379a000000000000000000000000000000000000000000000000000000000815260040161062990611588565b60405180910390fd5b600060026000858152602001908152602001600020805480602002602001604051908101604052809291908181526020016000905b828210156107db57838290600052602060002090600502016040518060a0016040529081600082015481526020016001820180546106a4906115d7565b80601f01602080910402602001604051908101604052809291908181526020018280546106d0906115d7565b801561071d5780601f106106f25761010080835404028352916020019161071d565b820191906000526020600020905b81548152906001019060200180831161070057829003601f168201915b50505050508152602001600282018054610736906115d7565b80601f0160208091040260200160405190810160405280929190818152602001828054610762906115d7565b80156107af5780601f10610784576101008083540402835291602001916107af565b820191906000526020600020905b81548152906001019060200180831161079257829003601f168201915b505050505081526020016003820154815260200160048201548152505081526020019060010190610667565b5050505090506000805b825181101561087a5784805190602001208382815181106108095761080861191f565b5b6020026020010151602001518051906020012014806108535750848051906020012083828151811061083e5761083d61191f565b5b60200260200101516040015180519060200120145b1561086757818061086390611637565b9250505b808061087290611637565b9150506107e5565b5060008167ffffffffffffffff81111561089757610896610fd3565b5b6040519080825280602002602001820160405280156108d057816020015b6108bd610de8565b8152602001906001900390816108b55790505b5090506000805b84518110156109a55786805190602001208582815181106108fb576108fa61191f565b5b602002602001015160200151805190602001201480610945575086805190602001208582815181106109305761092f61191f565b5b60200260200101516040015180519060200120145b156109925784818151811061095d5761095c61191f565b5b60200260200101518383815181106109785761097761191f565b5b6020026020010181905250818061098e90611637565b9250505b808061099d90611637565b9150506108d7565b508194505050505092915050565b600360009054906101000a900473ffffffffffffffffffffffffffffffffffffffff1673ffffffffffffffffffffffffffffffffffffffff163373ffffffffffffffffffffffffffffffffffffffff1614610a43576040517f08c379a0000000000000000000000000000000000000000000000000000000008152600401610a3a906119c0565b60405180910390fd5b600054851115610a88576040517f08c379a0000000000000000000000000000000000000000000000000000000008152600401610a7f90611588565b60405180910390fd5b600260008681526020019081526020016000206040518060a00160405280878152602001868152602001858152602001848152602001838152509080600181540180825580915050600190039060005260206000209060050201600090919091909150600082015181600001556020820151816001019081610b0a919061182b565b506040820151816002019081610b20919061182b565b5060608201518160030155608082015181600401555050600160008681526020019081526020016000206002016000815480929190610b5e90611637565b9190505550847f69e342fc22ceb8fbc792b8253ef61e6a9525e29f8e49eb9ba2ced64b05bc4f5285858585604051610b9994939291906119e0565b60405180910390a25050505050565b6060600054821115610bef576040517f08c379a0000000000000000000000000000000000000000000000000000000008152600401610be690611588565b60405180910390fd5b60026000838152602001908152602001600020805480602002602001604051908101604052809291908181526020016000905b82821015610d9657838290600052602060002090600502016040518060a001604052908160008201548152602001600182018054610c5f906115d7565b80601f0160208091040260200160405190810160405280929190818152602001828054610c8b906115d7565b8015610cd85780601f10610cad57610100808354040283529160200191610cd8565b820191906000526020600020905b815481529060010190602001808311610cbb57829003601f168201915b50505050508152602001600282018054610cf1906115d7565b80601f0160208091040260200160405190810160405280929190818152602001828054610d1d906115d7565b8015610d6a5780601f10610d3f57610100808354040283529160200191610d6a565b820191906000526020600020905b815481529060010190602001808311610d4d57829003601f168201915b505050505081526020016003820154815260200160048201548152505081526020019060010190610c22565b505050509050919050565b600360009054906101000a900473ffffffffffffffffffffffffffffffffffffffff1681565b60405180606001604052806000815260200160608152602001600081525090565b6040518060a0016040528060008152602001606081526020016060815260200160008152602001600081525090565b6000819050919050565b610e2a81610e17565b82525050565b6000602082019050610e456000830184610e21565b92915050565b6000604051905090565b600080fd5b600080fd5b610e6881610e17565b8114610e7357600080fd5b50565b600081359050610e8581610e5f565b92915050565b600060208284031215610ea157610ea0610e55565b5b6000610eaf84828501610e76565b91505092915050565b610ec181610e17565b82525050565b600081519050919050565b600082825260208201905092915050565b60005b83811015610f01578082015181840152602081019050610ee6565b60008484015250505050565b6000601f19601f8301169050919050565b6000610f2982610ec7565b610f338185610ed2565b9350610f43818560208601610ee3565b610f4c81610f0d565b840191505092915050565b6000606083016000830151610f6f6000860182610eb8565b5060208301518482036020860152610f878282610f1e565b9150506040830151610f9c6040860182610eb8565b508091505092915050565b60006020820190508181036000830152610fc18184610f57565b905092915050565b600080fd5b600080fd5b7f4e487b7100000000000000000000000000000000000000000000000000000000600052604160045260246000fd5b61100b82610f0d565b810181811067ffffffffffffffff8211171561102a57611029610fd3565b5b80604052505050565b600061103d610e4b565b90506110498282611002565b919050565b600067ffffffffffffffff82111561106957611068610fd3565b5b61107282610f0d565b9050602081019050919050565b82818337600083830152505050565b60006110a161109c8461104e565b611033565b9050828152602081018484840111156110bd576110bc610fce565b5b6110c884828561107f565b509392505050565b600082601f8301126110e5576110e4610fc9565b5b81356110f584826020860161108e565b91505092915050565b60006020828403121561111457611113610e55565b5b600082013567ffffffffffffffff81111561113257611131610e5a565b5b61113e848285016110d0565b91505092915050565b6000806040838503121561115e5761115d610e55565b5b600061116c85828601610e76565b925050602061117d85828601610e76565b9150509250929050565b600082825260208201905092915050565b60006111a382610ec7565b6111ad8185611187565b93506111bd818560208601610ee3565b6111c681610f0d565b840191505092915050565b600060a0820190506111e66000830188610e21565b81810360208301526111f88187611198565b9050818103604083015261120c8186611198565b905061121b6060830185610e21565b6112286080830184610e21565b9695505050505050565b60006060820190506112476000830186610e21565b81810360208301526112598185611198565b90506112686040830184610e21565b949350505050565b6000806040838503121561128757611286610e55565b5b600061129585828601610e76565b925050602083013567ffffffffffffffff8111156112b6576112b5610e5a565b5b6112c2858286016110d0565b9150509250929050565b600081519050919050565b600082825260208201905092915050565b6000819050602082019050919050565b600060a0830160008301516113106000860182610eb8565b50602083015184820360208601526113288282610f1e565b915050604083015184820360408601526113428282610f1e565b91505060608301516113576060860182610eb8565b50608083015161136a6080860182610eb8565b508091505092915050565b600061138183836112f8565b905092915050565b6000602082019050919050565b60006113a1826112cc565b6113ab81856112d7565b9350836020820285016113bd856112e8565b8060005b858110156113f957848403895281516113da8582611375565b94506113e583611389565b925060208a019950506001810190506113c1565b50829750879550505050505092915050565b600060208201905081810360008301526114258184611396565b905092915050565b600080600080600060a0868803121561144957611448610e55565b5b600061145788828901610e76565b955050602086013567ffffffffffffffff81111561147857611477610e5a565b5b611484888289016110d0565b945050604086013567ffffffffffffffff8111156114a5576114a4610e5a565b5b6114b1888289016110d0565b93505060606114c288828901610e76565b92505060806114d388828901610e76565b9150509295509295909350565b600073ffffffffffffffffffffffffffffffffffffffff82169050919050565b600061150b826114e0565b9050919050565b61151b81611500565b82525050565b60006020820190506115366000830184611512565b92915050565b7f546f75726e616d656e7420646f6573206e6f7420657869737400000000000000600082015250565b6000611572601983611187565b915061157d8261153c565b602082019050919050565b600060208201905081810360008301526115a181611565565b9050919050565b7f4e487b7100000000000000000000000000000000000000000000000000000000600052602260045260246000fd5b600060028204905060018216806115ef57607f821691505b602082108103611602576116016115a8565b5b50919050565b7f4e487b7100000000000000000000000000000000000000000000000000000000600052601160045260246000fd5b600061164282610e17565b91507fffffffffffffffffffffffffffffffffffffffffffffffffffffffffffffffff820361167457611673611608565b5b600182019050919050565b60008190508160005260206000209050919050565b60006020601f8301049050919050565b600082821b905092915050565b6000600883026116e17fffffffffffffffffffffffffffffffffffffffffffffffffffffffffffffffff826116a4565b6116eb86836116a4565b95508019841693508086168417925050509392505050565b6000819050919050565b600061172861172361171e84610e17565b611703565b610e17565b9050919050565b6000819050919050565b6117428361170d565b61175661174e8261172f565b8484546116b1565b825550505050565b600090565b61176b61175e565b611776818484611739565b505050565b5b8181101561179a5761178f600082611763565b60018101905061177c565b5050565b601f8211156117df576117b08161167f565b6117b984611694565b810160208510156117c8578190505b6117dc6117d485611694565b83018261177b565b50505b505050565b600082821c905092915050565b6000611802600019846008026117e4565b1980831691505092915050565b600061181b83836117f1565b9150826002028217905092915050565b61183482610ec7565b67ffffffffffffffff81111561184d5761184c610fd3565b5b61185782546115d7565b61186282828561179e565b600060209050601f8311600181146118955760008415611883578287015190505b61188d858261180f565b8655506118f5565b601f1984166118a38661167f565b60005b828110156118cb578489015182556001820191506020850194506020810190506118a6565b868310156118e857848901516118e4601f8916826117f1565b8355505b6001600288020188555050505b505050505050565b600060208201905081810360008301526119178184611198565b905092915050565b7f4e487b7100000000000000000000000000000000000000000000000000000000600052603260045260246000fd5b7f4f6e6c792061646d696e2063616e2063616c6c20746869732066756e6374696f60008201527f6e00000000000000000000000000000000000000000000000000000000000000602082015250565b60006119aa602183611187565b91506119b58261194e565b604082019050919050565b600060208201905081810360008301526119d98161199d565b9050919050565b600060808201905081810360008301526119fa8187611198565b90508181036020830152611a0e8186611198565b9050611a1d6040830185610e21565b611a2a6060830184610e21565b9594505050505056fea2646970667358221220bc4305f3b8fad774077d980ffd7014013ce1f53651df3770dd55648b1953996064736f6c63430008140033",
  "linkReferences": {},
  "deployedLinkReferences": {}
}