{
  "_format": "hh-sol-artifact-1",
  "contractName": "PongTournament",
  "sourceName": "contracts/PongTournament.sol",
  "abi": [
    {
      "inputs": [],
      "stateMutability": "nonpayable",
      "type": "constructor"
    },
    {
      "anonymous": false,
      "inputs": [
        {
          "indexed": true,
          "internalType": "address",
          "name": "oldAdmin",
          "type": "address"
        },
        {
          "indexed": true,
          "internalType": "address",
          "name": "newAdmin",
          "type": "address"
        }
      ],
      "name": "AdminChanged",
      "type": "event"
    },
    {
      "anonymous": false,
      "inputs": [
        {
          "indexed": false,
          "internalType": "uint256",
          "name": "tournamentId",
          "type": "uint256"
        },
        {
          "indexed": false,
          "internalType": "string",
          "name": "player1",
          "type": "string"
        },
        {
          "indexed": false,
          "internalType": "string",
          "name": "player2",
          "type": "string"
        },
        {
          "indexed": false,
          "internalType": "uint256",
          "name": "score1",
          "type": "uint256"
        },
        {
          "indexed": false,
          "internalType": "uint256",
          "name": "score2",
          "type": "uint256"
        },
        {
          "indexed": false,
          "internalType": "uint256",
          "name": "date",
          "type": "uint256"
        }
      ],
      "name": "MatchAdded",
      "type": "event"
    },
    {
      "anonymous": false,
      "inputs": [
        {
          "indexed": true,
          "internalType": "uint256",
          "name": "tournamentId",
          "type": "uint256"
        },
        {
          "indexed": false,
          "internalType": "string",
          "name": "name",
          "type": "string"
        }
      ],
      "name": "TournamentCreated",
      "type": "event"
    },
    {
      "inputs": [
        {
          "internalType": "uint256",
          "name": "_tournamentId",
          "type": "uint256"
        },
        {
          "internalType": "string",
          "name": "_player1",
          "type": "string"
        },
        {
          "internalType": "string",
          "name": "_player2",
          "type": "string"
        },
        {
          "internalType": "uint256",
          "name": "_score1",
          "type": "uint256"
        },
        {
          "internalType": "uint256",
          "name": "_score2",
          "type": "uint256"
        },
        {
          "internalType": "uint256",
          "name": "_date",
          "type": "uint256"
        }
      ],
      "name": "addMatch",
      "outputs": [],
      "stateMutability": "nonpayable",
      "type": "function"
    },
    {
      "inputs": [],
      "name": "admin",
      "outputs": [
        {
          "internalType": "address",
          "name": "",
          "type": "address"
        }
      ],
      "stateMutability": "view",
      "type": "function"
    },
    {
      "inputs": [
        {
          "internalType": "string",
          "name": "_name",
          "type": "string"
        }
      ],
      "name": "createTournament",
      "outputs": [],
      "stateMutability": "nonpayable",
      "type": "function"
    },
    {
      "inputs": [
        {
          "internalType": "uint256",
          "name": "_tournamentId",
          "type": "uint256"
        },
        {
          "internalType": "string",
          "name": "_playerName",
          "type": "string"
        }
      ],
      "name": "getPlayerMatches",
      "outputs": [
        {
          "components": [
            {
              "internalType": "uint256",
              "name": "tournamentId",
              "type": "uint256"
            },
            {
              "internalType": "string",
              "name": "player1",
              "type": "string"
            },
            {
              "internalType": "string",
              "name": "player2",
              "type": "string"
            },
            {
              "internalType": "uint256",
              "name": "score1",
              "type": "uint256"
            },
            {
              "internalType": "uint256",
              "name": "score2",
              "type": "uint256"
            },
            {
              "internalType": "uint256",
              "name": "date",
              "type": "uint256"
            }
          ],
          "internalType": "struct PongTournament.Match[]",
          "name": "",
          "type": "tuple[]"
        }
      ],
      "stateMutability": "view",
      "type": "function"
    },
    {
      "inputs": [
        {
          "internalType": "uint256",
          "name": "_tournamentId",
          "type": "uint256"
        }
      ],
      "name": "getTournament",
      "outputs": [
        {
          "components": [
            {
              "internalType": "uint256",
              "name": "id",
              "type": "uint256"
            },
            {
              "internalType": "string",
              "name": "name",
              "type": "string"
            }
          ],
          "internalType": "struct PongTournament.Tournament",
          "name": "",
          "type": "tuple"
        }
      ],
      "stateMutability": "view",
      "type": "function"
    },
    {
      "inputs": [],
      "name": "getTournamentCount",
      "outputs": [
        {
          "internalType": "uint256",
          "name": "",
          "type": "uint256"
        }
      ],
      "stateMutability": "view",
      "type": "function"
    },
    {
      "inputs": [
        {
          "internalType": "uint256",
          "name": "_tournamentId",
          "type": "uint256"
        }
      ],
      "name": "getTournamentMatches",
      "outputs": [
        {
          "components": [
            {
              "internalType": "uint256",
              "name": "tournamentId",
              "type": "uint256"
            },
            {
              "internalType": "string",
              "name": "player1",
              "type": "string"
            },
            {
              "internalType": "string",
              "name": "player2",
              "type": "string"
            },
            {
              "internalType": "uint256",
              "name": "score1",
              "type": "uint256"
            },
            {
              "internalType": "uint256",
              "name": "score2",
              "type": "uint256"
            },
            {
              "internalType": "uint256",
              "name": "date",
              "type": "uint256"
            }
          ],
          "internalType": "struct PongTournament.Match[]",
          "name": "",
          "type": "tuple[]"
        }
      ],
      "stateMutability": "view",
      "type": "function"
    },
    {
      "inputs": [
        {
          "internalType": "uint256",
          "name": "",
          "type": "uint256"
        },
        {
          "internalType": "uint256",
          "name": "",
          "type": "uint256"
        }
      ],
      "name": "tournamentMatches",
      "outputs": [
        {
          "internalType": "uint256",
          "name": "tournamentId",
          "type": "uint256"
        },
        {
          "internalType": "string",
          "name": "player1",
          "type": "string"
        },
        {
          "internalType": "string",
          "name": "player2",
          "type": "string"
        },
        {
          "internalType": "uint256",
          "name": "score1",
          "type": "uint256"
        },
        {
          "internalType": "uint256",
          "name": "score2",
          "type": "uint256"
        },
        {
          "internalType": "uint256",
          "name": "date",
          "type": "uint256"
        }
      ],
      "stateMutability": "view",
      "type": "function"
    },
    {
      "inputs": [
        {
          "internalType": "uint256",
          "name": "",
          "type": "uint256"
        }
      ],
      "name": "tournaments",
      "outputs": [
        {
          "internalType": "uint256",
          "name": "id",
          "type": "uint256"
        },
        {
          "internalType": "string",
          "name": "name",
          "type": "string"
        }
      ],
      "stateMutability": "view",
      "type": "function"
    }
  ],
  "bytecode": "0x60806040526000600360146101000a81548160ff0219169083151502179055503480156200002c57600080fd5b50600360149054906101000a900460ff161562000080576040517f08c379a0000000000000000000000000000000000000000000000000000000008152600401620000779062000169565b60405180910390fd5b33600360006101000a81548173ffffffffffffffffffffffffffffffffffffffff021916908373ffffffffffffffffffffffffffffffffffffffff1602179055506001600360146101000a81548160ff0219169083151502179055506200018b565b600082825260208201905092915050565b7f436f6e74726163742068617320616c7265616479206265656e206465706c6f7960008201527f6564210000000000000000000000000000000000000000000000000000000000602082015250565b600062000151602383620000e2565b91506200015e82620000f3565b604082019050919050565b60006020820190508181036000830152620001848162000142565b9050919050565b611a99806200019b6000396000f3fe608060405234801561001057600080fd5b50600436106100935760003560e01c806348ed4e191161006657806348ed4e19146101375780637503e1b7146101535780637b58450f14610184578063d8c57e85146101b4578063f851a440146101e457610093565b8063078c51f0146100985780631a5bd7fc146100b657806336345800146100e65780633fbf920114610102575b600080fd5b6100a0610202565b6040516100ad9190610ea1565b60405180910390f35b6100d060048036038101906100cb9190610efc565b61020b565b6040516100dd9190611005565b60405180910390f35b61010060048036038101906100fb919061115c565b610319565b005b61011c600480360381019061011791906111a5565b61044b565b60405161012e9695949392919061122f565b60405180910390f35b610151600480360381019061014c919061129e565b6105b4565b005b61016d60048036038101906101689190610efc565b610791565b60405161017b929190611363565b60405180910390f35b61019e60048036038101906101999190611393565b61083d565b6040516101ab9190611541565b60405180910390f35b6101ce60048036038101906101c99190610efc565b610c0f565b6040516101db9190611541565b60405180910390f35b6101ec610e12565b6040516101f991906115a4565b60405180910390f35b60008054905090565b610213610e38565b600054821115610258576040517f08c379a000000000000000000000000000000000000000000000000000000000815260040161024f9061160b565b60405180910390fd5b60016000838152602001908152602001600020604051806040016040529081600082015481526020016001820180546102909061165a565b80601f01602080910402602001604051908101604052809291908181526020018280546102bc9061165a565b80156103095780601f106102de57610100808354040283529160200191610309565b820191906000526020600020905b8154815290600101906020018083116102ec57829003601f168201915b5050505050815250509050919050565b600360009054906101000a900473ffffffffffffffffffffffffffffffffffffffff1673ffffffffffffffffffffffffffffffffffffffff163373ffffffffffffffffffffffffffffffffffffffff16146103a9576040517f08c379a00000000000000000000000000000000000000000000000000000000081526004016103a0906116fd565b60405180910390fd5b6000808154809291906103bb9061174c565b91905055506040518060400160405280600054815260200182815250600160008054815260200190815260200160002060008201518160000155602082015181600101908161040a9190611940565b509050506000547f77fc24e726ab1f7651f0523bdf97dd655fd89a1e56e42c18fea2906ac4a9d042826040516104409190611a12565b60405180910390a250565b6002602052816000526040600020818154811061046757600080fd5b9060005260206000209060060201600091509150508060000154908060010180546104919061165a565b80601f01602080910402602001604051908101604052809291908181526020018280546104bd9061165a565b801561050a5780601f106104df5761010080835404028352916020019161050a565b820191906000526020600020905b8154815290600101906020018083116104ed57829003601f168201915b50505050509080600201805461051f9061165a565b80601f016020809104026020016040519081016040528092919081815260200182805461054b9061165a565b80156105985780601f1061056d57610100808354040283529160200191610598565b820191906000526020600020905b81548152906001019060200180831161057b57829003601f168201915b5050505050908060030154908060040154908060050154905086565b600360009054906101000a900473ffffffffffffffffffffffffffffffffffffffff1673ffffffffffffffffffffffffffffffffffffffff163373ffffffffffffffffffffffffffffffffffffffff1614610644576040517f08c379a000000000000000000000000000000000000000000000000000000000815260040161063b906116fd565b60405180910390fd5b600054861115610689576040517f08c379a00000000000000000000000000000000000000000000000000000000081526004016106809061160b565b60405180910390fd5b600260008781526020019081526020016000206040518060c001604052808881526020018781526020018681526020018581526020018481526020018381525090806001815401808255809150506001900390600052602060002090600602016000909190919091506000820151816000015560208201518160010190816107119190611940565b5060408201518160020190816107279190611940565b50606082015181600301556080820151816004015560a0820151816005015550507f6997dcf1b3c4a322229a588949bcb44dc67dc9a1e6eb2d66e90c986f73bca5ea8686868686866040516107819695949392919061122f565b60405180910390a1505050505050565b60016020528060005260406000206000915090508060000154908060010180546107ba9061165a565b80601f01602080910402602001604051908101604052809291908181526020018280546107e69061165a565b80156108335780601f1061080857610100808354040283529160200191610833565b820191906000526020600020905b81548152906001019060200180831161081657829003601f168201915b5050505050905082565b6060600054831115610884576040517f08c379a000000000000000000000000000000000000000000000000000000000815260040161087b9061160b565b60405180910390fd5b600060026000858152602001908152602001600020805480602002602001604051908101604052809291908181526020016000905b82821015610a3757838290600052602060002090600602016040518060c0016040529081600082015481526020016001820180546108f69061165a565b80601f01602080910402602001604051908101604052809291908181526020018280546109229061165a565b801561096f5780601f106109445761010080835404028352916020019161096f565b820191906000526020600020905b81548152906001019060200180831161095257829003601f168201915b505050505081526020016002820180546109889061165a565b80601f01602080910402602001604051908101604052809291908181526020018280546109b49061165a565b8015610a015780601f106109d657610100808354040283529160200191610a01565b820191906000526020600020905b8154815290600101906020018083116109e457829003601f168201915b505050505081526020016003820154815260200160048201548152602001600582015481525050815260200190600101906108b9565b5050505090506000805b8251811015610ad6578480519060200120838281518110610a6557610a64611a34565b5b602002602001015160200151805190602001201480610aaf57508480519060200120838281518110610a9a57610a99611a34565b5b60200260200101516040015180519060200120145b15610ac3578180610abf9061174c565b9250505b8080610ace9061174c565b915050610a41565b5060008167ffffffffffffffff811115610af357610af2611031565b5b604051908082528060200260200182016040528015610b2c57816020015b610b19610e52565b815260200190600190039081610b115790505b5090506000805b8451811015610c01578680519060200120858281518110610b5757610b56611a34565b5b602002602001015160200151805190602001201480610ba157508680519060200120858281518110610b8c57610b8b611a34565b5b60200260200101516040015180519060200120145b15610bee57848181518110610bb957610bb8611a34565b5b6020026020010151838381518110610bd457610bd3611a34565b5b60200260200101819052508180610bea9061174c565b9250505b8080610bf99061174c565b915050610b33565b508194505050505092915050565b6060600054821115610c56576040517f08c379a0000000000000000000000000000000000000000000000000000000008152600401610c4d9061160b565b60405180910390fd5b60026000838152602001908152602001600020805480602002602001604051908101604052809291908181526020016000905b82821015610e0757838290600052602060002090600602016040518060c001604052908160008201548152602001600182018054610cc69061165a565b80601f0160208091040260200160405190810160405280929190818152602001828054610cf29061165a565b8015610d3f5780601f10610d1457610100808354040283529160200191610d3f565b820191906000526020600020905b815481529060010190602001808311610d2257829003601f168201915b50505050508152602001600282018054610d589061165a565b80601f0160208091040260200160405190810160405280929190818152602001828054610d849061165a565b8015610dd15780601f10610da657610100808354040283529160200191610dd1565b820191906000526020600020905b815481529060010190602001808311610db457829003601f168201915b50505050508152602001600382015481526020016004820154815260200160058201548152505081526020019060010190610c89565b505050509050919050565b600360009054906101000a900473ffffffffffffffffffffffffffffffffffffffff1681565b604051806040016040528060008152602001606081525090565b6040518060c001604052806000815260200160608152602001606081526020016000815260200160008152602001600081525090565b6000819050919050565b610e9b81610e88565b82525050565b6000602082019050610eb66000830184610e92565b92915050565b6000604051905090565b600080fd5b600080fd5b610ed981610e88565b8114610ee457600080fd5b50565b600081359050610ef681610ed0565b92915050565b600060208284031215610f1257610f11610ec6565b5b6000610f2084828501610ee7565b91505092915050565b610f3281610e88565b82525050565b600081519050919050565b600082825260208201905092915050565b60005b83811015610f72578082015181840152602081019050610f57565b60008484015250505050565b6000601f19601f8301169050919050565b6000610f9a82610f38565b610fa48185610f43565b9350610fb4818560208601610f54565b610fbd81610f7e565b840191505092915050565b6000604083016000830151610fe06000860182610f29565b5060208301518482036020860152610ff88282610f8f565b9150508091505092915050565b6000602082019050818103600083015261101f8184610fc8565b905092915050565b600080fd5b600080fd5b7f4e487b7100000000000000000000000000000000000000000000000000000000600052604160045260246000fd5b61106982610f7e565b810181811067ffffffffffffffff8211171561108857611087611031565b5b80604052505050565b600061109b610ebc565b90506110a78282611060565b919050565b600067ffffffffffffffff8211156110c7576110c6611031565b5b6110d082610f7e565b9050602081019050919050565b82818337600083830152505050565b60006110ff6110fa846110ac565b611091565b90508281526020810184848401111561111b5761111a61102c565b5b6111268482856110dd565b509392505050565b600082601f83011261114357611142611027565b5b81356111538482602086016110ec565b91505092915050565b60006020828403121561117257611171610ec6565b5b600082013567ffffffffffffffff8111156111905761118f610ecb565b5b61119c8482850161112e565b91505092915050565b600080604083850312156111bc576111bb610ec6565b5b60006111ca85828601610ee7565b92505060206111db85828601610ee7565b9150509250929050565b600082825260208201905092915050565b600061120182610f38565b61120b81856111e5565b935061121b818560208601610f54565b61122481610f7e565b840191505092915050565b600060c0820190506112446000830189610e92565b818103602083015261125681886111f6565b9050818103604083015261126a81876111f6565b90506112796060830186610e92565b6112866080830185610e92565b61129360a0830184610e92565b979650505050505050565b60008060008060008060c087890312156112bb576112ba610ec6565b5b60006112c989828a01610ee7565b965050602087013567ffffffffffffffff8111156112ea576112e9610ecb565b5b6112f689828a0161112e565b955050604087013567ffffffffffffffff81111561131757611316610ecb565b5b61132389828a0161112e565b945050606061133489828a01610ee7565b935050608061134589828a01610ee7565b92505060a061135689828a01610ee7565b9150509295509295509295565b60006040820190506113786000830185610e92565b818103602083015261138a81846111f6565b90509392505050565b600080604083850312156113aa576113a9610ec6565b5b60006113b885828601610ee7565b925050602083013567ffffffffffffffff8111156113d9576113d8610ecb565b5b6113e58582860161112e565b9150509250929050565b600081519050919050565b600082825260208201905092915050565b6000819050602082019050919050565b600060c0830160008301516114336000860182610f29565b506020830151848203602086015261144b8282610f8f565b915050604083015184820360408601526114658282610f8f565b915050606083015161147a6060860182610f29565b50608083015161148d6080860182610f29565b5060a08301516114a060a0860182610f29565b508091505092915050565b60006114b7838361141b565b905092915050565b6000602082019050919050565b60006114d7826113ef565b6114e181856113fa565b9350836020820285016114f38561140b565b8060005b8581101561152f578484038952815161151085826114ab565b945061151b836114bf565b925060208a019950506001810190506114f7565b50829750879550505050505092915050565b6000602082019050818103600083015261155b81846114cc565b905092915050565b600073ffffffffffffffffffffffffffffffffffffffff82169050919050565b600061158e82611563565b9050919050565b61159e81611583565b82525050565b60006020820190506115b96000830184611595565b92915050565b7f546f75726e616d656e7420646f6573206e6f7420657869737400000000000000600082015250565b60006115f56019836111e5565b9150611600826115bf565b602082019050919050565b60006020820190508181036000830152611624816115e8565b9050919050565b7f4e487b7100000000000000000000000000000000000000000000000000000000600052602260045260246000fd5b6000600282049050600182168061167257607f821691505b6020821081036116855761168461162b565b5b50919050565b7f4f6e6c792061646d696e2063616e2063616c6c20746869732066756e6374696f60008201527f6e00000000000000000000000000000000000000000000000000000000000000602082015250565b60006116e76021836111e5565b91506116f28261168b565b604082019050919050565b60006020820190508181036000830152611716816116da565b9050919050565b7f4e487b7100000000000000000000000000000000000000000000000000000000600052601160045260246000fd5b600061175782610e88565b91507fffffffffffffffffffffffffffffffffffffffffffffffffffffffffffffffff82036117895761178861171d565b5b600182019050919050565b60008190508160005260206000209050919050565b60006020601f8301049050919050565b600082821b905092915050565b6000600883026117f67fffffffffffffffffffffffffffffffffffffffffffffffffffffffffffffffff826117b9565b61180086836117b9565b95508019841693508086168417925050509392505050565b6000819050919050565b600061183d61183861183384610e88565b611818565b610e88565b9050919050565b6000819050919050565b61185783611822565b61186b61186382611844565b8484546117c6565b825550505050565b600090565b611880611873565b61188b81848461184e565b505050565b5b818110156118af576118a4600082611878565b600181019050611891565b5050565b601f8211156118f4576118c581611794565b6118ce846117a9565b810160208510156118dd578190505b6118f16118e9856117a9565b830182611890565b50505b505050565b600082821c905092915050565b6000611917600019846008026118f9565b1980831691505092915050565b60006119308383611906565b9150826002028217905092915050565b61194982610f38565b67ffffffffffffffff81111561196257611961611031565b5b61196c825461165a565b6119778282856118b3565b600060209050601f8311600181146119aa5760008415611998578287015190505b6119a28582611924565b865550611a0a565b601f1984166119b886611794565b60005b828110156119e0578489015182556001820191506020850194506020810190506119bb565b868310156119fd57848901516119f9601f891682611906565b8355505b6001600288020188555050505b505050505050565b60006020820190508181036000830152611a2c81846111f6565b905092915050565b7f4e487b7100000000000000000000000000000000000000000000000000000000600052603260045260246000fdfea26469706673582212201ad0e0f19e7e9e7e66eeca7a9800903ab901f678bcf198344f85575fd9c4f10f64736f6c63430008140033",
  "linkReferences": {},
  "deployedLinkReferences": {}
}