{
  "_format": "hh-sol-artifact-1",
  "contractName": "PongTournament",
  "sourceName": "contracts/PongTournament.sol",
  "abi": [
    {
      "inputs": [],
      "stateMutability": "nonpayable",
      "type": "constructor"
    },
    {
      "anonymous": false,
      "inputs": [
        {
          "indexed": true,
          "internalType": "address",
          "name": "oldAdmin",
          "type": "address"
        },
        {
          "indexed": true,
          "internalType": "address",
          "name": "newAdmin",
          "type": "address"
        }
      ],
      "name": "AdminChanged",
      "type": "event"
    },
    {
      "anonymous": false,
      "inputs": [
        {
          "indexed": false,
          "internalType": "uint256",
          "name": "tournamentId",
          "type": "uint256"
        },
        {
          "indexed": false,
          "internalType": "string",
          "name": "player1",
          "type": "string"
        },
        {
          "indexed": false,
          "internalType": "string",
          "name": "player2",
          "type": "string"
        },
        {
          "indexed": false,
          "internalType": "uint256",
          "name": "score1",
          "type": "uint256"
        },
        {
          "indexed": false,
          "internalType": "uint256",
          "name": "score2",
          "type": "uint256"
        },
        {
          "indexed": false,
          "internalType": "uint256",
          "name": "date",
          "type": "uint256"
        }
      ],
      "name": "MatchAdded",
      "type": "event"
    },
    {
      "anonymous": false,
      "inputs": [
        {
          "indexed": true,
          "internalType": "uint256",
          "name": "tournamentId",
          "type": "uint256"
        },
        {
          "indexed": false,
          "internalType": "string",
          "name": "name",
          "type": "string"
        }
      ],
      "name": "TournamentCreated",
      "type": "event"
    },
    {
      "inputs": [
        {
          "internalType": "uint256",
          "name": "_tournamentId",
          "type": "uint256"
        },
        {
          "internalType": "string",
          "name": "_player1",
          "type": "string"
        },
        {
          "internalType": "string",
          "name": "_player2",
          "type": "string"
        },
        {
          "internalType": "uint256",
          "name": "_score1",
          "type": "uint256"
        },
        {
          "internalType": "uint256",
          "name": "_score2",
          "type": "uint256"
        },
        {
          "internalType": "uint256",
          "name": "_date",
          "type": "uint256"
        }
      ],
      "name": "addMatch",
      "outputs": [],
      "stateMutability": "nonpayable",
      "type": "function"
    },
    {
      "inputs": [],
      "name": "admin",
      "outputs": [
        {
          "internalType": "address",
          "name": "",
          "type": "address"
        }
      ],
      "stateMutability": "view",
      "type": "function"
    },
    {
      "inputs": [
        {
          "internalType": "string",
          "name": "_name",
          "type": "string"
        }
      ],
      "name": "createTournament",
      "outputs": [],
      "stateMutability": "nonpayable",
      "type": "function"
    },
    {
      "inputs": [
        {
          "internalType": "uint256",
          "name": "_tournamentId",
          "type": "uint256"
        },
        {
          "internalType": "string",
          "name": "_playerName",
          "type": "string"
        }
      ],
      "name": "getPlayerMatches",
      "outputs": [
        {
          "components": [
            {
              "internalType": "uint256",
              "name": "tournamentId",
              "type": "uint256"
            },
            {
              "internalType": "string",
              "name": "player1",
              "type": "string"
            },
            {
              "internalType": "string",
              "name": "player2",
              "type": "string"
            },
            {
              "internalType": "uint256",
              "name": "score1",
              "type": "uint256"
            },
            {
              "internalType": "uint256",
              "name": "score2",
              "type": "uint256"
            },
            {
              "internalType": "uint256",
              "name": "date",
              "type": "uint256"
            }
          ],
          "internalType": "struct PongTournament.Match[]",
          "name": "",
          "type": "tuple[]"
        }
      ],
      "stateMutability": "view",
      "type": "function"
    },
    {
      "inputs": [
        {
          "internalType": "uint256",
          "name": "_tournamentId",
          "type": "uint256"
        }
      ],
      "name": "getTournament",
      "outputs": [
        {
          "components": [
            {
              "internalType": "uint256",
              "name": "id",
              "type": "uint256"
            },
            {
              "internalType": "string",
              "name": "name",
              "type": "string"
            }
          ],
          "internalType": "struct PongTournament.Tournament",
          "name": "",
          "type": "tuple"
        }
      ],
      "stateMutability": "view",
      "type": "function"
    },
    {
      "inputs": [],
      "name": "getTournamentCount",
      "outputs": [
        {
          "internalType": "uint256",
          "name": "",
          "type": "uint256"
        }
      ],
      "stateMutability": "view",
      "type": "function"
    },
    {
      "inputs": [
        {
          "internalType": "uint256",
          "name": "_tournamentId",
          "type": "uint256"
        }
      ],
      "name": "getTournamentMatches",
      "outputs": [
        {
          "components": [
            {
              "internalType": "uint256",
              "name": "tournamentId",
              "type": "uint256"
            },
            {
              "internalType": "string",
              "name": "player1",
              "type": "string"
            },
            {
              "internalType": "string",
              "name": "player2",
              "type": "string"
            },
            {
              "internalType": "uint256",
              "name": "score1",
              "type": "uint256"
            },
            {
              "internalType": "uint256",
              "name": "score2",
              "type": "uint256"
            },
            {
              "internalType": "uint256",
              "name": "date",
              "type": "uint256"
            }
          ],
          "internalType": "struct PongTournament.Match[]",
          "name": "",
          "type": "tuple[]"
        }
      ],
      "stateMutability": "view",
      "type": "function"
    },
    {
      "inputs": [
        {
          "internalType": "uint256",
          "name": "",
          "type": "uint256"
        },
        {
          "internalType": "uint256",
          "name": "",
          "type": "uint256"
        }
      ],
      "name": "tournamentMatches",
      "outputs": [
        {
          "internalType": "uint256",
          "name": "tournamentId",
          "type": "uint256"
        },
        {
          "internalType": "string",
          "name": "player1",
          "type": "string"
        },
        {
          "internalType": "string",
          "name": "player2",
          "type": "string"
        },
        {
          "internalType": "uint256",
          "name": "score1",
          "type": "uint256"
        },
        {
          "internalType": "uint256",
          "name": "score2",
          "type": "uint256"
        },
        {
          "internalType": "uint256",
          "name": "date",
          "type": "uint256"
        }
      ],
      "stateMutability": "view",
      "type": "function"
    },
    {
      "inputs": [
        {
          "internalType": "uint256",
          "name": "",
          "type": "uint256"
        }
      ],
      "name": "tournaments",
      "outputs": [
        {
          "internalType": "uint256",
          "name": "id",
          "type": "uint256"
        },
        {
          "internalType": "string",
          "name": "name",
          "type": "string"
        }
      ],
      "stateMutability": "view",
      "type": "function"
    }
  ],
  "bytecode": "0x608060405234801561001057600080fd5b5033600360006101000a81548173ffffffffffffffffffffffffffffffffffffffff021916908373ffffffffffffffffffffffffffffffffffffffff160217905550611a09806100616000396000f3fe608060405234801561001057600080fd5b50600436106100935760003560e01c806348ed4e191161006657806348ed4e19146101375780637503e1b7146101535780637b58450f14610184578063d8c57e85146101b4578063f851a440146101e457610093565b8063078c51f0146100985780631a5bd7fc146100b657806336345800146100e65780633fbf920114610102575b600080fd5b6100a0610202565b6040516100ad9190610e11565b60405180910390f35b6100d060048036038101906100cb9190610e6c565b61020b565b6040516100dd9190610f75565b60405180910390f35b61010060048036038101906100fb91906110cc565b610319565b005b61011c60048036038101906101179190611115565b6103bb565b60405161012e9695949392919061119f565b60405180910390f35b610151600480360381019061014c919061120e565b610524565b005b61016d60048036038101906101689190610e6c565b610701565b60405161017b9291906112d3565b60405180910390f35b61019e60048036038101906101999190611303565b6107ad565b6040516101ab91906114b1565b60405180910390f35b6101ce60048036038101906101c99190610e6c565b610b7f565b6040516101db91906114b1565b60405180910390f35b6101ec610d82565b6040516101f99190611514565b60405180910390f35b60008054905090565b610213610da8565b600054821115610258576040517f08c379a000000000000000000000000000000000000000000000000000000000815260040161024f9061157b565b60405180910390fd5b6001600083815260200190815260200160002060405180604001604052908160008201548152602001600182018054610290906115ca565b80601f01602080910402602001604051908101604052809291908181526020018280546102bc906115ca565b80156103095780601f106102de57610100808354040283529160200191610309565b820191906000526020600020905b8154815290600101906020018083116102ec57829003601f168201915b5050505050815250509050919050565b60008081548092919061032b9061162a565b91905055506040518060400160405280600054815260200182815250600160008054815260200190815260200160002060008201518160000155602082015181600101908161037a919061181e565b509050506000547f77fc24e726ab1f7651f0523bdf97dd655fd89a1e56e42c18fea2906ac4a9d042826040516103b091906118f0565b60405180910390a250565b600260205281600052604060002081815481106103d757600080fd5b906000526020600020906006020160009150915050806000015490806001018054610401906115ca565b80601f016020809104026020016040519081016040528092919081815260200182805461042d906115ca565b801561047a5780601f1061044f5761010080835404028352916020019161047a565b820191906000526020600020905b81548152906001019060200180831161045d57829003601f168201915b50505050509080600201805461048f906115ca565b80601f01602080910402602001604051908101604052809291908181526020018280546104bb906115ca565b80156105085780601f106104dd57610100808354040283529160200191610508565b820191906000526020600020905b8154815290600101906020018083116104eb57829003601f168201915b5050505050908060030154908060040154908060050154905086565b600360009054906101000a900473ffffffffffffffffffffffffffffffffffffffff1673ffffffffffffffffffffffffffffffffffffffff163373ffffffffffffffffffffffffffffffffffffffff16146105b4576040517f08c379a00000000000000000000000000000000000000000000000000000000081526004016105ab90611984565b60405180910390fd5b6000548611156105f9576040517f08c379a00000000000000000000000000000000000000000000000000000000081526004016105f09061157b565b60405180910390fd5b600260008781526020019081526020016000206040518060c00160405280888152602001878152602001868152602001858152602001848152602001838152509080600181540180825580915050600190039060005260206000209060060201600090919091909150600082015181600001556020820151816001019081610681919061181e565b506040820151816002019081610697919061181e565b50606082015181600301556080820151816004015560a0820151816005015550507f6997dcf1b3c4a322229a588949bcb44dc67dc9a1e6eb2d66e90c986f73bca5ea8686868686866040516106f19695949392919061119f565b60405180910390a1505050505050565b600160205280600052604060002060009150905080600001549080600101805461072a906115ca565b80601f0160208091040260200160405190810160405280929190818152602001828054610756906115ca565b80156107a35780601f10610778576101008083540402835291602001916107a3565b820191906000526020600020905b81548152906001019060200180831161078657829003601f168201915b5050505050905082565b60606000548311156107f4576040517f08c379a00000000000000000000000000000000000000000000000000000000081526004016107eb9061157b565b60405180910390fd5b600060026000858152602001908152602001600020805480602002602001604051908101604052809291908181526020016000905b828210156109a757838290600052602060002090600602016040518060c001604052908160008201548152602001600182018054610866906115ca565b80601f0160208091040260200160405190810160405280929190818152602001828054610892906115ca565b80156108df5780601f106108b4576101008083540402835291602001916108df565b820191906000526020600020905b8154815290600101906020018083116108c257829003601f168201915b505050505081526020016002820180546108f8906115ca565b80601f0160208091040260200160405190810160405280929190818152602001828054610924906115ca565b80156109715780601f1061094657610100808354040283529160200191610971565b820191906000526020600020905b81548152906001019060200180831161095457829003601f168201915b50505050508152602001600382015481526020016004820154815260200160058201548152505081526020019060010190610829565b5050505090506000805b8251811015610a465784805190602001208382815181106109d5576109d46119a4565b5b602002602001015160200151805190602001201480610a1f57508480519060200120838281518110610a0a57610a096119a4565b5b60200260200101516040015180519060200120145b15610a33578180610a2f9061162a565b9250505b8080610a3e9061162a565b9150506109b1565b5060008167ffffffffffffffff811115610a6357610a62610fa1565b5b604051908082528060200260200182016040528015610a9c57816020015b610a89610dc2565b815260200190600190039081610a815790505b5090506000805b8451811015610b71578680519060200120858281518110610ac757610ac66119a4565b5b602002602001015160200151805190602001201480610b1157508680519060200120858281518110610afc57610afb6119a4565b5b60200260200101516040015180519060200120145b15610b5e57848181518110610b2957610b286119a4565b5b6020026020010151838381518110610b4457610b436119a4565b5b60200260200101819052508180610b5a9061162a565b9250505b8080610b699061162a565b915050610aa3565b508194505050505092915050565b6060600054821115610bc6576040517f08c379a0000000000000000000000000000000000000000000000000000000008152600401610bbd9061157b565b60405180910390fd5b60026000838152602001908152602001600020805480602002602001604051908101604052809291908181526020016000905b82821015610d7757838290600052602060002090600602016040518060c001604052908160008201548152602001600182018054610c36906115ca565b80601f0160208091040260200160405190810160405280929190818152602001828054610c62906115ca565b8015610caf5780601f10610c8457610100808354040283529160200191610caf565b820191906000526020600020905b815481529060010190602001808311610c9257829003601f168201915b50505050508152602001600282018054610cc8906115ca565b80601f0160208091040260200160405190810160405280929190818152602001828054610cf4906115ca565b8015610d415780601f10610d1657610100808354040283529160200191610d41565b820191906000526020600020905b815481529060010190602001808311610d2457829003601f168201915b50505050508152602001600382015481526020016004820154815260200160058201548152505081526020019060010190610bf9565b505050509050919050565b600360009054906101000a900473ffffffffffffffffffffffffffffffffffffffff1681565b604051806040016040528060008152602001606081525090565b6040518060c001604052806000815260200160608152602001606081526020016000815260200160008152602001600081525090565b6000819050919050565b610e0b81610df8565b82525050565b6000602082019050610e266000830184610e02565b92915050565b6000604051905090565b600080fd5b600080fd5b610e4981610df8565b8114610e5457600080fd5b50565b600081359050610e6681610e40565b92915050565b600060208284031215610e8257610e81610e36565b5b6000610e9084828501610e57565b91505092915050565b610ea281610df8565b82525050565b600081519050919050565b600082825260208201905092915050565b60005b83811015610ee2578082015181840152602081019050610ec7565b60008484015250505050565b6000601f19601f8301169050919050565b6000610f0a82610ea8565b610f148185610eb3565b9350610f24818560208601610ec4565b610f2d81610eee565b840191505092915050565b6000604083016000830151610f506000860182610e99565b5060208301518482036020860152610f688282610eff565b9150508091505092915050565b60006020820190508181036000830152610f8f8184610f38565b905092915050565b600080fd5b600080fd5b7f4e487b7100000000000000000000000000000000000000000000000000000000600052604160045260246000fd5b610fd982610eee565b810181811067ffffffffffffffff82111715610ff857610ff7610fa1565b5b80604052505050565b600061100b610e2c565b90506110178282610fd0565b919050565b600067ffffffffffffffff82111561103757611036610fa1565b5b61104082610eee565b9050602081019050919050565b82818337600083830152505050565b600061106f61106a8461101c565b611001565b90508281526020810184848401111561108b5761108a610f9c565b5b61109684828561104d565b509392505050565b600082601f8301126110b3576110b2610f97565b5b81356110c384826020860161105c565b91505092915050565b6000602082840312156110e2576110e1610e36565b5b600082013567ffffffffffffffff811115611100576110ff610e3b565b5b61110c8482850161109e565b91505092915050565b6000806040838503121561112c5761112b610e36565b5b600061113a85828601610e57565b925050602061114b85828601610e57565b9150509250929050565b600082825260208201905092915050565b600061117182610ea8565b61117b8185611155565b935061118b818560208601610ec4565b61119481610eee565b840191505092915050565b600060c0820190506111b46000830189610e02565b81810360208301526111c68188611166565b905081810360408301526111da8187611166565b90506111e96060830186610e02565b6111f66080830185610e02565b61120360a0830184610e02565b979650505050505050565b60008060008060008060c0878903121561122b5761122a610e36565b5b600061123989828a01610e57565b965050602087013567ffffffffffffffff81111561125a57611259610e3b565b5b61126689828a0161109e565b955050604087013567ffffffffffffffff81111561128757611286610e3b565b5b61129389828a0161109e565b94505060606112a489828a01610e57565b93505060806112b589828a01610e57565b92505060a06112c689828a01610e57565b9150509295509295509295565b60006040820190506112e86000830185610e02565b81810360208301526112fa8184611166565b90509392505050565b6000806040838503121561131a57611319610e36565b5b600061132885828601610e57565b925050602083013567ffffffffffffffff81111561134957611348610e3b565b5b6113558582860161109e565b9150509250929050565b600081519050919050565b600082825260208201905092915050565b6000819050602082019050919050565b600060c0830160008301516113a36000860182610e99565b50602083015184820360208601526113bb8282610eff565b915050604083015184820360408601526113d58282610eff565b91505060608301516113ea6060860182610e99565b5060808301516113fd6080860182610e99565b5060a083015161141060a0860182610e99565b508091505092915050565b6000611427838361138b565b905092915050565b6000602082019050919050565b60006114478261135f565b611451818561136a565b9350836020820285016114638561137b565b8060005b8581101561149f5784840389528151611480858261141b565b945061148b8361142f565b925060208a01995050600181019050611467565b50829750879550505050505092915050565b600060208201905081810360008301526114cb818461143c565b905092915050565b600073ffffffffffffffffffffffffffffffffffffffff82169050919050565b60006114fe826114d3565b9050919050565b61150e816114f3565b82525050565b60006020820190506115296000830184611505565b92915050565b7f546f75726e616d656e7420646f6573206e6f7420657869737400000000000000600082015250565b6000611565601983611155565b91506115708261152f565b602082019050919050565b6000602082019050818103600083015261159481611558565b9050919050565b7f4e487b7100000000000000000000000000000000000000000000000000000000600052602260045260246000fd5b600060028204905060018216806115e257607f821691505b6020821081036115f5576115f461159b565b5b50919050565b7f4e487b7100000000000000000000000000000000000000000000000000000000600052601160045260246000fd5b600061163582610df8565b91507fffffffffffffffffffffffffffffffffffffffffffffffffffffffffffffffff8203611667576116666115fb565b5b600182019050919050565b60008190508160005260206000209050919050565b60006020601f8301049050919050565b600082821b905092915050565b6000600883026116d47fffffffffffffffffffffffffffffffffffffffffffffffffffffffffffffffff82611697565b6116de8683611697565b95508019841693508086168417925050509392505050565b6000819050919050565b600061171b61171661171184610df8565b6116f6565b610df8565b9050919050565b6000819050919050565b61173583611700565b61174961174182611722565b8484546116a4565b825550505050565b600090565b61175e611751565b61176981848461172c565b505050565b5b8181101561178d57611782600082611756565b60018101905061176f565b5050565b601f8211156117d2576117a381611672565b6117ac84611687565b810160208510156117bb578190505b6117cf6117c785611687565b83018261176e565b50505b505050565b600082821c905092915050565b60006117f5600019846008026117d7565b1980831691505092915050565b600061180e83836117e4565b9150826002028217905092915050565b61182782610ea8565b67ffffffffffffffff8111156118405761183f610fa1565b5b61184a82546115ca565b611855828285611791565b600060209050601f8311600181146118885760008415611876578287015190505b6118808582611802565b8655506118e8565b601f19841661189686611672565b60005b828110156118be57848901518255600182019150602085019450602081019050611899565b868310156118db57848901516118d7601f8916826117e4565b8355505b6001600288020188555050505b505050505050565b6000602082019050818103600083015261190a8184611166565b905092915050565b7f4f6e6c792061646d696e2063616e2063616c6c20746869732066756e6374696f60008201527f6e00000000000000000000000000000000000000000000000000000000000000602082015250565b600061196e602183611155565b915061197982611912565b604082019050919050565b6000602082019050818103600083015261199d81611961565b9050919050565b7f4e487b7100000000000000000000000000000000000000000000000000000000600052603260045260246000fdfea26469706673582212204785dfd5a03336405df8bb8451af26256fb251e2685a04dd566284ba53ed7f5364736f6c63430008140033",
  "linkReferences": {},
  "deployedLinkReferences": {}
}