{
  "_format": "hh-sol-artifact-1",
  "contractName": "PongTournament",
  "sourceName": "contracts/PongTournament.sol",
  "abi": [
    {
      "inputs": [],
      "stateMutability": "nonpayable",
      "type": "constructor"
    },
    {
      "anonymous": false,
      "inputs": [
        {
          "indexed": true,
          "internalType": "address",
          "name": "oldAdmin",
          "type": "address"
        },
        {
          "indexed": true,
          "internalType": "address",
          "name": "newAdmin",
          "type": "address"
        }
      ],
      "name": "AdminChanged",
      "type": "event"
    },
    {
      "anonymous": false,
      "inputs": [
        {
          "indexed": true,
          "internalType": "uint256",
          "name": "tournamentId",
          "type": "uint256"
        },
        {
          "indexed": false,
          "internalType": "string",
          "name": "player1",
          "type": "string"
        },
        {
          "indexed": false,
          "internalType": "string",
          "name": "player2",
          "type": "string"
        },
        {
          "indexed": false,
          "internalType": "uint256",
          "name": "score1",
          "type": "uint256"
        },
        {
          "indexed": false,
          "internalType": "uint256",
          "name": "score2",
          "type": "uint256"
        }
      ],
      "name": "MatchAdded",
      "type": "event"
    },
    {
      "anonymous": false,
      "inputs": [
        {
          "indexed": true,
          "internalType": "uint256",
          "name": "tournamentId",
          "type": "uint256"
        },
        {
          "indexed": false,
          "internalType": "string",
          "name": "name",
          "type": "string"
        }
      ],
      "name": "TournamentCreated",
      "type": "event"
    },
    {
      "inputs": [
        {
          "internalType": "uint256",
          "name": "_tournamentId",
          "type": "uint256"
        },
        {
          "internalType": "string",
          "name": "_player1",
          "type": "string"
        },
        {
          "internalType": "string",
          "name": "_player2",
          "type": "string"
        },
        {
          "internalType": "uint256",
          "name": "_score1",
          "type": "uint256"
        },
        {
          "internalType": "uint256",
          "name": "_score2",
          "type": "uint256"
        }
      ],
      "name": "addMatch",
      "outputs": [],
      "stateMutability": "nonpayable",
      "type": "function"
    },
    {
      "inputs": [],
      "name": "admin",
      "outputs": [
        {
          "internalType": "address",
          "name": "",
          "type": "address"
        }
      ],
      "stateMutability": "view",
      "type": "function"
    },
    {
      "inputs": [
        {
          "internalType": "address",
          "name": "_newAdmin",
          "type": "address"
        }
      ],
      "name": "changeAdmin",
      "outputs": [],
      "stateMutability": "nonpayable",
      "type": "function"
    },
    {
      "inputs": [
        {
          "internalType": "string",
          "name": "_name",
          "type": "string"
        }
      ],
      "name": "createTournament",
      "outputs": [],
      "stateMutability": "nonpayable",
      "type": "function"
    },
    {
      "inputs": [
        {
          "internalType": "uint256",
          "name": "_tournamentId",
          "type": "uint256"
        }
      ],
      "name": "getTournament",
      "outputs": [
        {
          "components": [
            {
              "internalType": "uint256",
              "name": "id",
              "type": "uint256"
            },
            {
              "internalType": "string",
              "name": "name",
              "type": "string"
            },
            {
              "internalType": "uint256",
              "name": "matchCount",
              "type": "uint256"
            }
          ],
          "internalType": "struct PongTournament.Tournament",
          "name": "",
          "type": "tuple"
        }
      ],
      "stateMutability": "view",
      "type": "function"
    },
    {
      "inputs": [],
      "name": "getTournamentCount",
      "outputs": [
        {
          "internalType": "uint256",
          "name": "",
          "type": "uint256"
        }
      ],
      "stateMutability": "view",
      "type": "function"
    },
    {
      "inputs": [
        {
          "internalType": "uint256",
          "name": "_tournamentId",
          "type": "uint256"
        }
      ],
      "name": "getTournamentMatches",
      "outputs": [
        {
          "components": [
            {
              "internalType": "uint256",
              "name": "tournamentId",
              "type": "uint256"
            },
            {
              "internalType": "string",
              "name": "player1",
              "type": "string"
            },
            {
              "internalType": "string",
              "name": "player2",
              "type": "string"
            },
            {
              "internalType": "uint256",
              "name": "score1",
              "type": "uint256"
            },
            {
              "internalType": "uint256",
              "name": "score2",
              "type": "uint256"
            }
          ],
          "internalType": "struct PongTournament.Match[]",
          "name": "",
          "type": "tuple[]"
        }
      ],
      "stateMutability": "view",
      "type": "function"
    },
    {
      "inputs": [
        {
          "internalType": "uint256",
          "name": "",
          "type": "uint256"
        },
        {
          "internalType": "uint256",
          "name": "",
          "type": "uint256"
        }
      ],
      "name": "tournamentMatches",
      "outputs": [
        {
          "internalType": "uint256",
          "name": "tournamentId",
          "type": "uint256"
        },
        {
          "internalType": "string",
          "name": "player1",
          "type": "string"
        },
        {
          "internalType": "string",
          "name": "player2",
          "type": "string"
        },
        {
          "internalType": "uint256",
          "name": "score1",
          "type": "uint256"
        },
        {
          "internalType": "uint256",
          "name": "score2",
          "type": "uint256"
        }
      ],
      "stateMutability": "view",
      "type": "function"
    },
    {
      "inputs": [
        {
          "internalType": "uint256",
          "name": "",
          "type": "uint256"
        }
      ],
      "name": "tournaments",
      "outputs": [
        {
          "internalType": "uint256",
          "name": "id",
          "type": "uint256"
        },
        {
          "internalType": "string",
          "name": "name",
          "type": "string"
        },
        {
          "internalType": "uint256",
          "name": "matchCount",
          "type": "uint256"
        }
      ],
      "stateMutability": "view",
      "type": "function"
    }
  ],
  "bytecode": "0x6080604052348015600f57600080fd5b5033600360006101000a81548173ffffffffffffffffffffffffffffffffffffffff021916908373ffffffffffffffffffffffffffffffffffffffff16021790555061190d806100606000396000f3fe608060405234801561001057600080fd5b50600436106100935760003560e01c80637503e1b7116100665780637503e1b7146101365780638f28397014610168578063cae077af14610184578063d8c57e85146101a0578063f851a440146101d057610093565b8063078c51f0146100985780631a5bd7fc146100b657806336345800146100e65780633fbf920114610102575b600080fd5b6100a06101ee565b6040516100ad9190610c74565b60405180910390f35b6100d060048036038101906100cb9190610ccf565b6101f7565b6040516100dd9190610deb565b60405180910390f35b61010060048036038101906100fb9190610f42565b61030f565b005b61011c60048036038101906101179190610f8b565b610452565b60405161012d959493929190611015565b60405180910390f35b610150600480360381019061014b9190610ccf565b6105b5565b60405161015f93929190611076565b60405180910390f35b610182600480360381019061017d9190611112565b610667565b005b61019e6004803603810190610199919061113f565b610826565b005b6101ba60048036038101906101b59190610ccf565b610a1b565b6040516101c79190611331565b60405180910390f35b6101d8610c14565b6040516101e59190611362565b60405180910390f35b60008054905090565b6101ff610c3a565b600054821115610244576040517f08c379a000000000000000000000000000000000000000000000000000000000815260040161023b906113c9565b60405180910390fd5b600160008381526020019081526020016000206040518060600160405290816000820154815260200160018201805461027c90611418565b80601f01602080910402602001604051908101604052809291908181526020018280546102a890611418565b80156102f55780601f106102ca576101008083540402835291602001916102f5565b820191906000526020600020905b8154815290600101906020018083116102d857829003601f168201915b505050505081526020016002820154815250509050919050565b600360009054906101000a900473ffffffffffffffffffffffffffffffffffffffff1673ffffffffffffffffffffffffffffffffffffffff163373ffffffffffffffffffffffffffffffffffffffff161461039f576040517f08c379a0000000000000000000000000000000000000000000000000000000008152600401610396906114bb565b60405180910390fd5b6000808154809291906103b19061150a565b9190505550604051806060016040528060005481526020018281526020016000815250600160008054815260200190815260200160002060008201518160000155602082015181600101908161040791906116fe565b50604082015181600201559050506000547f77fc24e726ab1f7651f0523bdf97dd655fd89a1e56e42c18fea2906ac4a9d0428260405161044791906117d0565b60405180910390a250565b6002602052816000526040600020818154811061046e57600080fd5b90600052602060002090600502016000915091505080600001549080600101805461049890611418565b80601f01602080910402602001604051908101604052809291908181526020018280546104c490611418565b80156105115780601f106104e657610100808354040283529160200191610511565b820191906000526020600020905b8154815290600101906020018083116104f457829003601f168201915b50505050509080600201805461052690611418565b80601f016020809104026020016040519081016040528092919081815260200182805461055290611418565b801561059f5780601f106105745761010080835404028352916020019161059f565b820191906000526020600020905b81548152906001019060200180831161058257829003601f168201915b5050505050908060030154908060040154905085565b60016020528060005260406000206000915090508060000154908060010180546105de90611418565b80601f016020809104026020016040519081016040528092919081815260200182805461060a90611418565b80156106575780601f1061062c57610100808354040283529160200191610657565b820191906000526020600020905b81548152906001019060200180831161063a57829003601f168201915b5050505050908060020154905083565b600360009054906101000a900473ffffffffffffffffffffffffffffffffffffffff1673ffffffffffffffffffffffffffffffffffffffff163373ffffffffffffffffffffffffffffffffffffffff16146106f7576040517f08c379a00000000000000000000000000000000000000000000000000000000081526004016106ee906114bb565b60405180910390fd5b600073ffffffffffffffffffffffffffffffffffffffff168173ffffffffffffffffffffffffffffffffffffffff1603610766576040517f08c379a000000000000000000000000000000000000000000000000000000000815260040161075d90611864565b60405180910390fd5b8073ffffffffffffffffffffffffffffffffffffffff16600360009054906101000a900473ffffffffffffffffffffffffffffffffffffffff1673ffffffffffffffffffffffffffffffffffffffff167f7e644d79422f17c01e4894b5f4f588d331ebfa28653d42ae832dc59e38c9798f60405160405180910390a380600360006101000a81548173ffffffffffffffffffffffffffffffffffffffff021916908373ffffffffffffffffffffffffffffffffffffffff16021790555050565b600360009054906101000a900473ffffffffffffffffffffffffffffffffffffffff1673ffffffffffffffffffffffffffffffffffffffff163373ffffffffffffffffffffffffffffffffffffffff16146108b6576040517f08c379a00000000000000000000000000000000000000000000000000000000081526004016108ad906114bb565b60405180910390fd5b6000548511156108fb576040517f08c379a00000000000000000000000000000000000000000000000000000000081526004016108f2906113c9565b60405180910390fd5b600260008681526020019081526020016000206040518060a0016040528087815260200186815260200185815260200184815260200183815250908060018154018082558091505060019003906000526020600020906005020160009091909190915060008201518160000155602082015181600101908161097d91906116fe565b50604082015181600201908161099391906116fe565b50606082015181600301556080820151816004015550506001600086815260200190815260200160002060020160008154809291906109d19061150a565b9190505550847f69e342fc22ceb8fbc792b8253ef61e6a9525e29f8e49eb9ba2ced64b05bc4f5285858585604051610a0c9493929190611884565b60405180910390a25050505050565b6060600054821115610a62576040517f08c379a0000000000000000000000000000000000000000000000000000000008152600401610a59906113c9565b60405180910390fd5b60026000838152602001908152602001600020805480602002602001604051908101604052809291908181526020016000905b82821015610c0957838290600052602060002090600502016040518060a001604052908160008201548152602001600182018054610ad290611418565b80601f0160208091040260200160405190810160405280929190818152602001828054610afe90611418565b8015610b4b5780601f10610b2057610100808354040283529160200191610b4b565b820191906000526020600020905b815481529060010190602001808311610b2e57829003601f168201915b50505050508152602001600282018054610b6490611418565b80601f0160208091040260200160405190810160405280929190818152602001828054610b9090611418565b8015610bdd5780601f10610bb257610100808354040283529160200191610bdd565b820191906000526020600020905b815481529060010190602001808311610bc057829003601f168201915b505050505081526020016003820154815260200160048201548152505081526020019060010190610a95565b505050509050919050565b600360009054906101000a900473ffffffffffffffffffffffffffffffffffffffff1681565b60405180606001604052806000815260200160608152602001600081525090565b6000819050919050565b610c6e81610c5b565b82525050565b6000602082019050610c896000830184610c65565b92915050565b6000604051905090565b600080fd5b600080fd5b610cac81610c5b565b8114610cb757600080fd5b50565b600081359050610cc981610ca3565b92915050565b600060208284031215610ce557610ce4610c99565b5b6000610cf384828501610cba565b91505092915050565b610d0581610c5b565b82525050565b600081519050919050565b600082825260208201905092915050565b60005b83811015610d45578082015181840152602081019050610d2a565b60008484015250505050565b6000601f19601f8301169050919050565b6000610d6d82610d0b565b610d778185610d16565b9350610d87818560208601610d27565b610d9081610d51565b840191505092915050565b6000606083016000830151610db36000860182610cfc565b5060208301518482036020860152610dcb8282610d62565b9150506040830151610de06040860182610cfc565b508091505092915050565b60006020820190508181036000830152610e058184610d9b565b905092915050565b600080fd5b600080fd5b7f4e487b7100000000000000000000000000000000000000000000000000000000600052604160045260246000fd5b610e4f82610d51565b810181811067ffffffffffffffff82111715610e6e57610e6d610e17565b5b80604052505050565b6000610e81610c8f565b9050610e8d8282610e46565b919050565b600067ffffffffffffffff821115610ead57610eac610e17565b5b610eb682610d51565b9050602081019050919050565b82818337600083830152505050565b6000610ee5610ee084610e92565b610e77565b905082815260208101848484011115610f0157610f00610e12565b5b610f0c848285610ec3565b509392505050565b600082601f830112610f2957610f28610e0d565b5b8135610f39848260208601610ed2565b91505092915050565b600060208284031215610f5857610f57610c99565b5b600082013567ffffffffffffffff811115610f7657610f75610c9e565b5b610f8284828501610f14565b91505092915050565b60008060408385031215610fa257610fa1610c99565b5b6000610fb085828601610cba565b9250506020610fc185828601610cba565b9150509250929050565b600082825260208201905092915050565b6000610fe782610d0b565b610ff18185610fcb565b9350611001818560208601610d27565b61100a81610d51565b840191505092915050565b600060a08201905061102a6000830188610c65565b818103602083015261103c8187610fdc565b905081810360408301526110508186610fdc565b905061105f6060830185610c65565b61106c6080830184610c65565b9695505050505050565b600060608201905061108b6000830186610c65565b818103602083015261109d8185610fdc565b90506110ac6040830184610c65565b949350505050565b600073ffffffffffffffffffffffffffffffffffffffff82169050919050565b60006110df826110b4565b9050919050565b6110ef816110d4565b81146110fa57600080fd5b50565b60008135905061110c816110e6565b92915050565b60006020828403121561112857611127610c99565b5b6000611136848285016110fd565b91505092915050565b600080600080600060a0868803121561115b5761115a610c99565b5b600061116988828901610cba565b955050602086013567ffffffffffffffff81111561118a57611189610c9e565b5b61119688828901610f14565b945050604086013567ffffffffffffffff8111156111b7576111b6610c9e565b5b6111c388828901610f14565b93505060606111d488828901610cba565b92505060806111e588828901610cba565b9150509295509295909350565b600081519050919050565b600082825260208201905092915050565b6000819050602082019050919050565b600060a0830160008301516112366000860182610cfc565b506020830151848203602086015261124e8282610d62565b915050604083015184820360408601526112688282610d62565b915050606083015161127d6060860182610cfc565b5060808301516112906080860182610cfc565b508091505092915050565b60006112a7838361121e565b905092915050565b6000602082019050919050565b60006112c7826111f2565b6112d181856111fd565b9350836020820285016112e38561120e565b8060005b8581101561131f5784840389528151611300858261129b565b945061130b836112af565b925060208a019950506001810190506112e7565b50829750879550505050505092915050565b6000602082019050818103600083015261134b81846112bc565b905092915050565b61135c816110d4565b82525050565b60006020820190506113776000830184611353565b92915050565b7f546f75726e616d656e7420646f6573206e6f7420657869737400000000000000600082015250565b60006113b3601983610fcb565b91506113be8261137d565b602082019050919050565b600060208201905081810360008301526113e2816113a6565b9050919050565b7f4e487b7100000000000000000000000000000000000000000000000000000000600052602260045260246000fd5b6000600282049050600182168061143057607f821691505b602082108103611443576114426113e9565b5b50919050565b7f4f6e6c792061646d696e2063616e2063616c6c20746869732066756e6374696f60008201527f6e00000000000000000000000000000000000000000000000000000000000000602082015250565b60006114a5602183610fcb565b91506114b082611449565b604082019050919050565b600060208201905081810360008301526114d481611498565b9050919050565b7f4e487b7100000000000000000000000000000000000000000000000000000000600052601160045260246000fd5b600061151582610c5b565b91507fffffffffffffffffffffffffffffffffffffffffffffffffffffffffffffffff8203611547576115466114db565b5b600182019050919050565b60008190508160005260206000209050919050565b60006020601f8301049050919050565b600082821b905092915050565b6000600883026115b47fffffffffffffffffffffffffffffffffffffffffffffffffffffffffffffffff82611577565b6115be8683611577565b95508019841693508086168417925050509392505050565b6000819050919050565b60006115fb6115f66115f184610c5b565b6115d6565b610c5b565b9050919050565b6000819050919050565b611615836115e0565b61162961162182611602565b848454611584565b825550505050565b600090565b61163e611631565b61164981848461160c565b505050565b5b8181101561166d57611662600082611636565b60018101905061164f565b5050565b601f8211156116b25761168381611552565b61168c84611567565b8101602085101561169b578190505b6116af6116a785611567565b83018261164e565b50505b505050565b600082821c905092915050565b60006116d5600019846008026116b7565b1980831691505092915050565b60006116ee83836116c4565b9150826002028217905092915050565b61170782610d0b565b67ffffffffffffffff8111156117205761171f610e17565b5b61172a8254611418565b611735828285611671565b600060209050601f8311600181146117685760008415611756578287015190505b61176085826116e2565b8655506117c8565b601f19841661177686611552565b60005b8281101561179e57848901518255600182019150602085019450602081019050611779565b868310156117bb57848901516117b7601f8916826116c4565b8355505b6001600288020188555050505b505050505050565b600060208201905081810360008301526117ea8184610fdc565b905092915050565b7f4e65772061646d696e2063616e6e6f7420626520746865207a65726f2061646460008201527f7265737300000000000000000000000000000000000000000000000000000000602082015250565b600061184e602483610fcb565b9150611859826117f2565b604082019050919050565b6000602082019050818103600083015261187d81611841565b9050919050565b6000608082019050818103600083015261189e8187610fdc565b905081810360208301526118b28186610fdc565b90506118c16040830185610c65565b6118ce6060830184610c65565b9594505050505056fea2646970667358221220cf6948ec1ca997f78aa1d6c7d11984371309016d03737622f285b55c6527a38b64736f6c634300081c0033",
  "linkReferences": {},
  "deployedLinkReferences": {}
}