{
  "_format": "hh-sol-artifact-1",
  "contractName": "PongTournament",
  "sourceName": "contracts/PongTournament.sol",
  "abi": [
    {
      "inputs": [],
      "stateMutability": "nonpayable",
      "type": "constructor"
    },
    {
      "anonymous": false,
      "inputs": [
        {
          "indexed": true,
          "internalType": "address",
          "name": "oldAdmin",
          "type": "address"
        },
        {
          "indexed": true,
          "internalType": "address",
          "name": "newAdmin",
          "type": "address"
        }
      ],
      "name": "AdminChanged",
      "type": "event"
    },
    {
      "anonymous": false,
      "inputs": [
        {
          "indexed": true,
          "internalType": "uint256",
          "name": "tournamentId",
          "type": "uint256"
        },
        {
          "indexed": false,
          "internalType": "string",
          "name": "player1",
          "type": "string"
        },
        {
          "indexed": false,
          "internalType": "string",
          "name": "player2",
          "type": "string"
        },
        {
          "indexed": false,
          "internalType": "uint256",
          "name": "score1",
          "type": "uint256"
        },
        {
          "indexed": false,
          "internalType": "uint256",
          "name": "score2",
          "type": "uint256"
        }
      ],
      "name": "MatchAdded",
      "type": "event"
    },
    {
      "anonymous": false,
      "inputs": [
        {
          "indexed": true,
          "internalType": "uint256",
          "name": "tournamentId",
          "type": "uint256"
        },
        {
          "indexed": false,
          "internalType": "string",
          "name": "name",
          "type": "string"
        }
      ],
      "name": "TournamentCreated",
      "type": "event"
    },
    {
      "inputs": [
        {
          "internalType": "uint256",
          "name": "_tournamentId",
          "type": "uint256"
        },
        {
          "internalType": "string",
          "name": "_player1",
          "type": "string"
        },
        {
          "internalType": "string",
          "name": "_player2",
          "type": "string"
        },
        {
          "internalType": "uint256",
          "name": "_score1",
          "type": "uint256"
        },
        {
          "internalType": "uint256",
          "name": "_score2",
          "type": "uint256"
        }
      ],
      "name": "addMatch",
      "outputs": [],
      "stateMutability": "nonpayable",
      "type": "function"
    },
    {
      "inputs": [],
      "name": "admin",
      "outputs": [
        {
          "internalType": "address",
          "name": "",
          "type": "address"
        }
      ],
      "stateMutability": "view",
      "type": "function"
    },
    {
      "inputs": [
        {
          "internalType": "string",
          "name": "_name",
          "type": "string"
        }
      ],
      "name": "createTournament",
      "outputs": [],
      "stateMutability": "nonpayable",
      "type": "function"
    },
    {
      "inputs": [
        {
          "internalType": "uint256",
          "name": "_tournamentId",
          "type": "uint256"
        }
      ],
      "name": "getTournament",
      "outputs": [
        {
          "components": [
            {
              "internalType": "uint256",
              "name": "id",
              "type": "uint256"
            },
            {
              "internalType": "string",
              "name": "name",
              "type": "string"
            },
            {
              "internalType": "uint256",
              "name": "matchCount",
              "type": "uint256"
            }
          ],
          "internalType": "struct PongTournament.Tournament",
          "name": "",
          "type": "tuple"
        }
      ],
      "stateMutability": "view",
      "type": "function"
    },
    {
      "inputs": [],
      "name": "getTournamentCount",
      "outputs": [
        {
          "internalType": "uint256",
          "name": "",
          "type": "uint256"
        }
      ],
      "stateMutability": "view",
      "type": "function"
    },
    {
      "inputs": [
        {
          "internalType": "uint256",
          "name": "_tournamentId",
          "type": "uint256"
        }
      ],
      "name": "getTournamentMatches",
      "outputs": [
        {
          "components": [
            {
              "internalType": "uint256",
              "name": "tournamentId",
              "type": "uint256"
            },
            {
              "internalType": "string",
              "name": "player1",
              "type": "string"
            },
            {
              "internalType": "string",
              "name": "player2",
              "type": "string"
            },
            {
              "internalType": "uint256",
              "name": "score1",
              "type": "uint256"
            },
            {
              "internalType": "uint256",
              "name": "score2",
              "type": "uint256"
            }
          ],
          "internalType": "struct PongTournament.Match[]",
          "name": "",
          "type": "tuple[]"
        }
      ],
      "stateMutability": "view",
      "type": "function"
    },
    {
      "inputs": [
        {
          "internalType": "uint256",
          "name": "",
          "type": "uint256"
        },
        {
          "internalType": "uint256",
          "name": "",
          "type": "uint256"
        }
      ],
      "name": "tournamentMatches",
      "outputs": [
        {
          "internalType": "uint256",
          "name": "tournamentId",
          "type": "uint256"
        },
        {
          "internalType": "string",
          "name": "player1",
          "type": "string"
        },
        {
          "internalType": "string",
          "name": "player2",
          "type": "string"
        },
        {
          "internalType": "uint256",
          "name": "score1",
          "type": "uint256"
        },
        {
          "internalType": "uint256",
          "name": "score2",
          "type": "uint256"
        }
      ],
      "stateMutability": "view",
      "type": "function"
    },
    {
      "inputs": [
        {
          "internalType": "uint256",
          "name": "",
          "type": "uint256"
        }
      ],
      "name": "tournaments",
      "outputs": [
        {
          "internalType": "uint256",
          "name": "id",
          "type": "uint256"
        },
        {
          "internalType": "string",
          "name": "name",
          "type": "string"
        },
        {
          "internalType": "uint256",
          "name": "matchCount",
          "type": "uint256"
        }
      ],
      "stateMutability": "view",
      "type": "function"
    }
  ],
  "bytecode": "0x608060405234801561001057600080fd5b5033600360006101000a81548173ffffffffffffffffffffffffffffffffffffffff021916908373ffffffffffffffffffffffffffffffffffffffff16021790555061163c806100616000396000f3fe608060405234801561001057600080fd5b50600436106100885760003560e01c80637503e1b71161005b5780637503e1b71461012b578063cae077af1461015d578063d8c57e8514610179578063f851a440146101a957610088565b8063078c51f01461008d5780631a5bd7fc146100ab57806336345800146100db5780633fbf9201146100f7575b600080fd5b6100956101c7565b6040516100a29190610a8e565b60405180910390f35b6100c560048036038101906100c09190610ae9565b6101d0565b6040516100d29190610c05565b60405180910390f35b6100f560048036038101906100f09190610d5c565b6102e8565b005b610111600480360381019061010c9190610da5565b61042b565b604051610122959493929190610e2f565b60405180910390f35b61014560048036038101906101409190610ae9565b61058e565b60405161015493929190610e90565b60405180910390f35b61017760048036038101906101729190610ece565b610640565b005b610193600480360381019061018e9190610ae9565b610835565b6040516101a091906110c0565b60405180910390f35b6101b1610a2e565b6040516101be9190611123565b60405180910390f35b60008054905090565b6101d8610a54565b60005482111561021d576040517f08c379a00000000000000000000000000000000000000000000000000000000081526004016102149061118a565b60405180910390fd5b6001600083815260200190815260200160002060405180606001604052908160008201548152602001600182018054610255906111d9565b80601f0160208091040260200160405190810160405280929190818152602001828054610281906111d9565b80156102ce5780601f106102a3576101008083540402835291602001916102ce565b820191906000526020600020905b8154815290600101906020018083116102b157829003601f168201915b505050505081526020016002820154815250509050919050565b600360009054906101000a900473ffffffffffffffffffffffffffffffffffffffff1673ffffffffffffffffffffffffffffffffffffffff163373ffffffffffffffffffffffffffffffffffffffff1614610378576040517f08c379a000000000000000000000000000000000000000000000000000000000815260040161036f9061127c565b60405180910390fd5b60008081548092919061038a906112cb565b919050555060405180606001604052806000548152602001828152602001600081525060016000805481526020019081526020016000206000820151816000015560208201518160010190816103e091906114bf565b50604082015181600201559050506000547f77fc24e726ab1f7651f0523bdf97dd655fd89a1e56e42c18fea2906ac4a9d042826040516104209190611591565b60405180910390a250565b6002602052816000526040600020818154811061044757600080fd5b906000526020600020906005020160009150915050806000015490806001018054610471906111d9565b80601f016020809104026020016040519081016040528092919081815260200182805461049d906111d9565b80156104ea5780601f106104bf576101008083540402835291602001916104ea565b820191906000526020600020905b8154815290600101906020018083116104cd57829003601f168201915b5050505050908060020180546104ff906111d9565b80601f016020809104026020016040519081016040528092919081815260200182805461052b906111d9565b80156105785780601f1061054d57610100808354040283529160200191610578565b820191906000526020600020905b81548152906001019060200180831161055b57829003601f168201915b5050505050908060030154908060040154905085565b60016020528060005260406000206000915090508060000154908060010180546105b7906111d9565b80601f01602080910402602001604051908101604052809291908181526020018280546105e3906111d9565b80156106305780601f1061060557610100808354040283529160200191610630565b820191906000526020600020905b81548152906001019060200180831161061357829003601f168201915b5050505050908060020154905083565b600360009054906101000a900473ffffffffffffffffffffffffffffffffffffffff1673ffffffffffffffffffffffffffffffffffffffff163373ffffffffffffffffffffffffffffffffffffffff16146106d0576040517f08c379a00000000000000000000000000000000000000000000000000000000081526004016106c79061127c565b60405180910390fd5b600054851115610715576040517f08c379a000000000000000000000000000000000000000000000000000000000815260040161070c9061118a565b60405180910390fd5b600260008681526020019081526020016000206040518060a0016040528087815260200186815260200185815260200184815260200183815250908060018154018082558091505060019003906000526020600020906005020160009091909190915060008201518160000155602082015181600101908161079791906114bf565b5060408201518160020190816107ad91906114bf565b50606082015181600301556080820151816004015550506001600086815260200190815260200160002060020160008154809291906107eb906112cb565b9190505550847f69e342fc22ceb8fbc792b8253ef61e6a9525e29f8e49eb9ba2ced64b05bc4f528585858560405161082694939291906115b3565b60405180910390a25050505050565b606060005482111561087c576040517f08c379a00000000000000000000000000000000000000000000000000000000081526004016108739061118a565b60405180910390fd5b60026000838152602001908152602001600020805480602002602001604051908101604052809291908181526020016000905b82821015610a2357838290600052602060002090600502016040518060a0016040529081600082015481526020016001820180546108ec906111d9565b80601f0160208091040260200160405190810160405280929190818152602001828054610918906111d9565b80156109655780601f1061093a57610100808354040283529160200191610965565b820191906000526020600020905b81548152906001019060200180831161094857829003601f168201915b5050505050815260200160028201805461097e906111d9565b80601f01602080910402602001604051908101604052809291908181526020018280546109aa906111d9565b80156109f75780601f106109cc576101008083540402835291602001916109f7565b820191906000526020600020905b8154815290600101906020018083116109da57829003601f168201915b5050505050815260200160038201548152602001600482015481525050815260200190600101906108af565b505050509050919050565b600360009054906101000a900473ffffffffffffffffffffffffffffffffffffffff1681565b60405180606001604052806000815260200160608152602001600081525090565b6000819050919050565b610a8881610a75565b82525050565b6000602082019050610aa36000830184610a7f565b92915050565b6000604051905090565b600080fd5b600080fd5b610ac681610a75565b8114610ad157600080fd5b50565b600081359050610ae381610abd565b92915050565b600060208284031215610aff57610afe610ab3565b5b6000610b0d84828501610ad4565b91505092915050565b610b1f81610a75565b82525050565b600081519050919050565b600082825260208201905092915050565b60005b83811015610b5f578082015181840152602081019050610b44565b60008484015250505050565b6000601f19601f8301169050919050565b6000610b8782610b25565b610b918185610b30565b9350610ba1818560208601610b41565b610baa81610b6b565b840191505092915050565b6000606083016000830151610bcd6000860182610b16565b5060208301518482036020860152610be58282610b7c565b9150506040830151610bfa6040860182610b16565b508091505092915050565b60006020820190508181036000830152610c1f8184610bb5565b905092915050565b600080fd5b600080fd5b7f4e487b7100000000000000000000000000000000000000000000000000000000600052604160045260246000fd5b610c6982610b6b565b810181811067ffffffffffffffff82111715610c8857610c87610c31565b5b80604052505050565b6000610c9b610aa9565b9050610ca78282610c60565b919050565b600067ffffffffffffffff821115610cc757610cc6610c31565b5b610cd082610b6b565b9050602081019050919050565b82818337600083830152505050565b6000610cff610cfa84610cac565b610c91565b905082815260208101848484011115610d1b57610d1a610c2c565b5b610d26848285610cdd565b509392505050565b600082601f830112610d4357610d42610c27565b5b8135610d53848260208601610cec565b91505092915050565b600060208284031215610d7257610d71610ab3565b5b600082013567ffffffffffffffff811115610d9057610d8f610ab8565b5b610d9c84828501610d2e565b91505092915050565b60008060408385031215610dbc57610dbb610ab3565b5b6000610dca85828601610ad4565b9250506020610ddb85828601610ad4565b9150509250929050565b600082825260208201905092915050565b6000610e0182610b25565b610e0b8185610de5565b9350610e1b818560208601610b41565b610e2481610b6b565b840191505092915050565b600060a082019050610e446000830188610a7f565b8181036020830152610e568187610df6565b90508181036040830152610e6a8186610df6565b9050610e796060830185610a7f565b610e866080830184610a7f565b9695505050505050565b6000606082019050610ea56000830186610a7f565b8181036020830152610eb78185610df6565b9050610ec66040830184610a7f565b949350505050565b600080600080600060a08688031215610eea57610ee9610ab3565b5b6000610ef888828901610ad4565b955050602086013567ffffffffffffffff811115610f1957610f18610ab8565b5b610f2588828901610d2e565b945050604086013567ffffffffffffffff811115610f4657610f45610ab8565b5b610f5288828901610d2e565b9350506060610f6388828901610ad4565b9250506080610f7488828901610ad4565b9150509295509295909350565b600081519050919050565b600082825260208201905092915050565b6000819050602082019050919050565b600060a083016000830151610fc56000860182610b16565b5060208301518482036020860152610fdd8282610b7c565b91505060408301518482036040860152610ff78282610b7c565b915050606083015161100c6060860182610b16565b50608083015161101f6080860182610b16565b508091505092915050565b60006110368383610fad565b905092915050565b6000602082019050919050565b600061105682610f81565b6110608185610f8c565b93508360208202850161107285610f9d565b8060005b858110156110ae578484038952815161108f858261102a565b945061109a8361103e565b925060208a01995050600181019050611076565b50829750879550505050505092915050565b600060208201905081810360008301526110da818461104b565b905092915050565b600073ffffffffffffffffffffffffffffffffffffffff82169050919050565b600061110d826110e2565b9050919050565b61111d81611102565b82525050565b60006020820190506111386000830184611114565b92915050565b7f546f75726e616d656e7420646f6573206e6f7420657869737400000000000000600082015250565b6000611174601983610de5565b915061117f8261113e565b602082019050919050565b600060208201905081810360008301526111a381611167565b9050919050565b7f4e487b7100000000000000000000000000000000000000000000000000000000600052602260045260246000fd5b600060028204905060018216806111f157607f821691505b602082108103611204576112036111aa565b5b50919050565b7f4f6e6c792061646d696e2063616e2063616c6c20746869732066756e6374696f60008201527f6e00000000000000000000000000000000000000000000000000000000000000602082015250565b6000611266602183610de5565b91506112718261120a565b604082019050919050565b6000602082019050818103600083015261129581611259565b9050919050565b7f4e487b7100000000000000000000000000000000000000000000000000000000600052601160045260246000fd5b60006112d682610a75565b91507fffffffffffffffffffffffffffffffffffffffffffffffffffffffffffffffff82036113085761130761129c565b5b600182019050919050565b60008190508160005260206000209050919050565b60006020601f8301049050919050565b600082821b905092915050565b6000600883026113757fffffffffffffffffffffffffffffffffffffffffffffffffffffffffffffffff82611338565b61137f8683611338565b95508019841693508086168417925050509392505050565b6000819050919050565b60006113bc6113b76113b284610a75565b611397565b610a75565b9050919050565b6000819050919050565b6113d6836113a1565b6113ea6113e2826113c3565b848454611345565b825550505050565b600090565b6113ff6113f2565b61140a8184846113cd565b505050565b5b8181101561142e576114236000826113f7565b600181019050611410565b5050565b601f8211156114735761144481611313565b61144d84611328565b8101602085101561145c578190505b61147061146885611328565b83018261140f565b50505b505050565b600082821c905092915050565b600061149660001984600802611478565b1980831691505092915050565b60006114af8383611485565b9150826002028217905092915050565b6114c882610b25565b67ffffffffffffffff8111156114e1576114e0610c31565b5b6114eb82546111d9565b6114f6828285611432565b600060209050601f8311600181146115295760008415611517578287015190505b61152185826114a3565b865550611589565b601f19841661153786611313565b60005b8281101561155f5784890151825560018201915060208501945060208101905061153a565b8683101561157c5784890151611578601f891682611485565b8355505b6001600288020188555050505b505050505050565b600060208201905081810360008301526115ab8184610df6565b905092915050565b600060808201905081810360008301526115cd8187610df6565b905081810360208301526115e18186610df6565b90506115f06040830185610a7f565b6115fd6060830184610a7f565b9594505050505056fea2646970667358221220b81d9cf9bcefe8b91cf2865a79837bdd016e1a3a153d427a489e11a4a3e7f58864736f6c63430008140033",
  "linkReferences": {},
  "deployedLinkReferences": {}
}